{
  "contractName": "ExamManagement",
  "abi": [
    {
      "inputs": [
        {
          "internalType": "uint256",
          "name": "_num_qus",
          "type": "uint256"
        },
        {
          "internalType": "string",
          "name": "_q_hash",
          "type": "string"
        },
        {
          "internalType": "uint256[]",
          "name": "_ans_key",
          "type": "uint256[]"
        },
        {
          "internalType": "uint256",
          "name": "_fee",
          "type": "uint256"
        }
      ],
      "stateMutability": "nonpayable",
      "type": "constructor",
      "signature": "constructor"
    },
    {
      "anonymous": false,
      "inputs": [
        {
          "indexed": true,
          "internalType": "address",
          "name": "previousOwner",
          "type": "address"
        },
        {
          "indexed": true,
          "internalType": "address",
          "name": "newOwner",
          "type": "address"
        }
      ],
      "name": "OwnershipTransferred",
      "type": "event",
      "signature": "0x8be0079c531659141344cd1fd0a4f28419497f9722a3daafe3b4186f6b6457e0"
    },
    {
      "anonymous": false,
      "inputs": [
        {
          "indexed": false,
          "internalType": "address",
          "name": "account",
          "type": "address"
        }
      ],
      "name": "Paused",
      "type": "event",
      "signature": "0x62e78cea01bee320cd4e420270b5ea74000d11b0c9f74754ebdbfc544b05a258"
    },
    {
      "anonymous": false,
      "inputs": [
        {
          "indexed": false,
          "internalType": "address",
          "name": "account",
          "type": "address"
        }
      ],
      "name": "Unpaused",
      "type": "event",
      "signature": "0x5db9ee0a495bf2e6ff9c91a7834c1ba4fdd244a5e8aa4e537bd38aeae4b073aa"
    },
    {
      "anonymous": false,
      "inputs": [
        {
          "indexed": false,
          "internalType": "address",
          "name": "from",
          "type": "address"
        },
        {
          "indexed": false,
          "internalType": "uint256",
          "name": "amount",
          "type": "uint256"
        }
      ],
      "name": "feePaymentEvent",
      "type": "event",
      "signature": "0x5abe37385c292c3a2956998c90a47f98a0250a7cbc9d8f4477ecb1e6b8ef317a"
    },
    {
      "anonymous": false,
      "inputs": [
        {
          "indexed": false,
          "internalType": "string",
          "name": "",
          "type": "string"
        }
      ],
      "name": "pauseExamEvent",
      "type": "event",
      "signature": "0x3ae457c3fc2cdb009906632c85a51ff38f24201f6855609c99aff784b1da738f"
    },
    {
      "anonymous": false,
      "inputs": [
        {
          "indexed": false,
          "internalType": "address",
          "name": "wallet",
          "type": "address"
        },
        {
          "indexed": false,
          "internalType": "uint256",
          "name": "ans",
          "type": "uint256"
        }
      ],
      "name": "quesSubmitEvent",
      "type": "event",
      "signature": "0xe501e06382064c08b637bd906f7e816a8bd244d3f37712d2b85eec3cb01dcf8d"
    },
    {
      "anonymous": false,
      "inputs": [
        {
          "indexed": false,
          "internalType": "address",
          "name": "_wallet",
          "type": "address"
        },
        {
          "components": [
            {
              "internalType": "address",
              "name": "wallet",
              "type": "address"
            },
            {
              "internalType": "string",
              "name": "email",
              "type": "string"
            },
            {
              "internalType": "bool",
              "name": "feePaid",
              "type": "bool"
            },
            {
              "internalType": "uint256[]",
              "name": "ans",
              "type": "uint256[]"
            },
            {
              "internalType": "bool",
              "name": "attempt",
              "type": "bool"
            },
            {
              "internalType": "uint256",
              "name": "result",
              "type": "uint256"
            }
          ],
          "indexed": false,
          "internalType": "struct Student.StudentData",
          "name": "data",
          "type": "tuple"
        }
      ],
      "name": "registerStudentEvent",
      "type": "event",
      "signature": "0x69d91c5f944e6da035f2a126b0d12233cf8492ac6dc65940c8a97525bb25f04f"
    },
    {
      "anonymous": false,
      "inputs": [
        {
          "indexed": false,
          "internalType": "address",
          "name": "wallet",
          "type": "address"
        },
        {
          "indexed": false,
          "internalType": "uint256",
          "name": "result",
          "type": "uint256"
        }
      ],
      "name": "resultEvent",
      "type": "event",
      "signature": "0xd0581392fce4efd24c795f3f1dbb4ac72fd673ee9d8f9696abd1de37b407a239"
    },
    {
      "anonymous": false,
      "inputs": [
        {
          "indexed": false,
          "internalType": "address",
          "name": "wallet",
          "type": "address"
        },
        {
          "indexed": false,
          "internalType": "uint256[]",
          "name": "ans",
          "type": "uint256[]"
        }
      ],
      "name": "submitExamEvent",
      "type": "event",
      "signature": "0x4733c31819d250478892f1958a412cb4b85316e5c7d217c61cef8521f5d1444f"
    },
    {
      "anonymous": false,
      "inputs": [
        {
          "indexed": false,
          "internalType": "string",
          "name": "",
          "type": "string"
        }
      ],
      "name": "unPauseExamEvent",
      "type": "event",
      "signature": "0x0c23a5bf64e0064c2bec16b840d0e891741c429680bb2891bcc8835780f85070"
    },
    {
      "inputs": [],
      "name": "owner",
      "outputs": [
        {
          "internalType": "address",
          "name": "",
          "type": "address"
        }
      ],
      "stateMutability": "view",
      "type": "function",
      "constant": true,
      "signature": "0x8da5cb5b"
    },
    {
      "inputs": [],
      "name": "paused",
      "outputs": [
        {
          "internalType": "bool",
          "name": "",
          "type": "bool"
        }
      ],
      "stateMutability": "view",
      "type": "function",
      "constant": true,
      "signature": "0x5c975abb"
    },
    {
      "inputs": [],
      "name": "renounceOwnership",
      "outputs": [],
      "stateMutability": "nonpayable",
      "type": "function",
      "signature": "0x715018a6"
    },
    {
      "inputs": [
        {
          "internalType": "address",
          "name": "newOwner",
          "type": "address"
        }
      ],
      "name": "transferOwnership",
      "outputs": [],
      "stateMutability": "nonpayable",
      "type": "function",
      "signature": "0xf2fde38b"
    },
    {
      "inputs": [
        {
          "internalType": "string",
          "name": "_email",
          "type": "string"
        }
      ],
      "name": "registerStudent",
      "outputs": [],
      "stateMutability": "nonpayable",
      "type": "function",
      "signature": "0x71e17445"
    },
    {
      "inputs": [
        {
          "internalType": "address",
          "name": "_wallet",
          "type": "address"
        }
      ],
      "name": "getStudent",
      "outputs": [
        {
          "components": [
            {
              "internalType": "address",
              "name": "wallet",
              "type": "address"
            },
            {
              "internalType": "string",
              "name": "email",
              "type": "string"
            },
            {
              "internalType": "bool",
              "name": "feePaid",
              "type": "bool"
            },
            {
              "internalType": "uint256[]",
              "name": "ans",
              "type": "uint256[]"
            },
            {
              "internalType": "bool",
              "name": "attempt",
              "type": "bool"
            },
            {
              "internalType": "uint256",
              "name": "result",
              "type": "uint256"
            }
          ],
          "internalType": "struct Student.StudentData",
          "name": "",
          "type": "tuple"
        }
      ],
      "stateMutability": "view",
      "type": "function",
      "constant": true,
      "signature": "0x6b7b44d7"
    },
    {
      "inputs": [],
      "name": "getProfile",
      "outputs": [
        {
          "components": [
            {
              "internalType": "address",
              "name": "wallet",
              "type": "address"
            },
            {
              "internalType": "string",
              "name": "email",
              "type": "string"
            },
            {
              "internalType": "bool",
              "name": "feePaid",
              "type": "bool"
            },
            {
              "internalType": "uint256[]",
              "name": "ans",
              "type": "uint256[]"
            },
            {
              "internalType": "bool",
              "name": "attempt",
              "type": "bool"
            },
            {
              "internalType": "uint256",
              "name": "result",
              "type": "uint256"
            }
          ],
          "internalType": "struct Student.StudentData",
          "name": "",
          "type": "tuple"
        }
      ],
      "stateMutability": "view",
      "type": "function",
      "constant": true,
      "signature": "0xd6afc9b1"
    },
    {
      "inputs": [],
      "name": "attendExam",
      "outputs": [
        {
          "internalType": "string",
          "name": "",
          "type": "string"
        }
      ],
      "stateMutability": "view",
      "type": "function",
      "constant": true,
      "signature": "0xf491f31b"
    },
    {
      "inputs": [
        {
          "internalType": "uint256",
          "name": "_ans",
          "type": "uint256"
        }
      ],
      "name": "submitExam",
      "outputs": [],
      "stateMutability": "nonpayable",
      "type": "function",
      "signature": "0x0c6ca093"
    },
    {
      "inputs": [],
      "name": "generateResult",
      "outputs": [],
      "stateMutability": "nonpayable",
      "type": "function",
      "signature": "0x1dbe2e0e"
    },
    {
      "inputs": [],
      "name": "feePayment",
      "outputs": [],
      "stateMutability": "payable",
      "type": "function",
      "payable": true,
      "signature": "0x33c7c026"
    },
    {
      "inputs": [],
      "name": "VerifyExam",
      "outputs": [
        {
          "internalType": "address",
          "name": "",
          "type": "address"
        },
        {
          "internalType": "address",
          "name": "",
          "type": "address"
        },
        {
          "internalType": "uint256",
          "name": "",
          "type": "uint256"
        }
      ],
      "stateMutability": "view",
      "type": "function",
      "constant": true,
      "signature": "0x029652cf"
    },
    {
      "inputs": [],
      "name": "getExam",
      "outputs": [
        {
          "internalType": "address",
          "name": "",
          "type": "address"
        },
        {
          "internalType": "uint256",
          "name": "",
          "type": "uint256"
        },
        {
          "internalType": "string",
          "name": "",
          "type": "string"
        },
        {
          "internalType": "uint256[]",
          "name": "",
          "type": "uint256[]"
        }
      ],
      "stateMutability": "view",
      "type": "function",
      "constant": true,
      "signature": "0x29b5ddb7"
    },
    {
      "inputs": [],
      "name": "getBalance",
      "outputs": [
        {
          "internalType": "uint256",
          "name": "",
          "type": "uint256"
        }
      ],
      "stateMutability": "view",
      "type": "function",
      "constant": true,
      "signature": "0x12065fe0"
    },
    {
      "inputs": [],
      "name": "PauseExam",
      "outputs": [],
      "stateMutability": "nonpayable",
      "type": "function",
      "signature": "0x68644c65"
    },
    {
      "inputs": [],
      "name": "checkExamPaused",
      "outputs": [
        {
          "internalType": "bool",
          "name": "",
          "type": "bool"
        }
      ],
      "stateMutability": "view",
      "type": "function",
      "constant": true,
      "signature": "0x9666831e"
    },
    {
      "inputs": [],
      "name": "unPauseExam",
      "outputs": [],
      "stateMutability": "nonpayable",
      "type": "function",
      "signature": "0xd6d48c8d"
    }
  ],
  "bytecode": "0x60806040523480156200001157600080fd5b506040516200352638038062003526833981810160405281019062000037919062000583565b60008060006101000a81548160ff02191690831515021790555062000071620000656200010160201b60201c565b6200010960201b60201c565b81518414620000b7576040517f08c379a0000000000000000000000000000000000000000000000000000000008152600401620000ae90620006ba565b60405180910390fd5b836002819055508260039080519060200190620000d6929190620001ce565b508160049080519060200190620000ef9291906200025f565b50806005819055505050505062000740565b600033905090565b60008060019054906101000a900473ffffffffffffffffffffffffffffffffffffffff16905081600060016101000a81548173ffffffffffffffffffffffffffffffffffffffff021916908373ffffffffffffffffffffffffffffffffffffffff1602179055508173ffffffffffffffffffffffffffffffffffffffff168173ffffffffffffffffffffffffffffffffffffffff167f8be0079c531659141344cd1fd0a4f28419497f9722a3daafe3b4186f6b6457e060405160405180910390a35050565b828054620001dc906200070b565b90600052602060002090601f0160209004810192826200020057600085556200024c565b82601f106200021b57805160ff19168380011785556200024c565b828001600101855582156200024c579182015b828111156200024b5782518255916020019190600101906200022e565b5b5090506200025b9190620002b1565b5090565b8280548282559060005260206000209081019282156200029e579160200282015b828111156200029d57825182559160200191906001019062000280565b5b509050620002ad9190620002b1565b5090565b5b80821115620002cc576000816000905550600101620002b2565b5090565b6000604051905090565b600080fd5b600080fd5b6000819050919050565b620002f981620002e4565b81146200030557600080fd5b50565b6000815190506200031981620002ee565b92915050565b600080fd5b600080fd5b6000601f19601f8301169050919050565b7f4e487b7100000000000000000000000000000000000000000000000000000000600052604160045260246000fd5b620003748262000329565b810181811067ffffffffffffffff821117156200039657620003956200033a565b5b80604052505050565b6000620003ab620002d0565b9050620003b9828262000369565b919050565b600067ffffffffffffffff821115620003dc57620003db6200033a565b5b620003e78262000329565b9050602081019050919050565b60005b8381101562000414578082015181840152602081019050620003f7565b8381111562000424576000848401525b50505050565b6000620004416200043b84620003be565b6200039f565b90508281526020810184848401111562000460576200045f62000324565b5b6200046d848285620003f4565b509392505050565b600082601f8301126200048d576200048c6200031f565b5b81516200049f8482602086016200042a565b91505092915050565b600067ffffffffffffffff821115620004c657620004c56200033a565b5b602082029050602081019050919050565b600080fd5b6000620004f3620004ed84620004a8565b6200039f565b90508083825260208201905060208402830185811115620005195762000518620004d7565b5b835b8181101562000546578062000531888262000308565b8452602084019350506020810190506200051b565b5050509392505050565b600082601f8301126200056857620005676200031f565b5b81516200057a848260208601620004dc565b91505092915050565b60008060008060808587031215620005a0576200059f620002da565b5b6000620005b08782880162000308565b945050602085015167ffffffffffffffff811115620005d457620005d3620002df565b5b620005e28782880162000475565b935050604085015167ffffffffffffffff811115620006065762000605620002df565b5b620006148782880162000550565b9250506060620006278782880162000308565b91505092959194509250565b600082825260208201905092915050565b7f506c6561736520636865636b206e756d626572206f66207175657374696f6e7360008201527f20616e6420616e73776572206b657920636f756e740000000000000000000000602082015250565b6000620006a260358362000633565b9150620006af8262000644565b604082019050919050565b60006020820190508181036000830152620006d58162000693565b9050919050565b7f4e487b7100000000000000000000000000000000000000000000000000000000600052602260045260246000fd5b600060028204905060018216806200072457607f821691505b6020821081036200073a5762000739620006dc565b5b50919050565b612dd680620007506000396000f3fe6080604052600436106100fe5760003560e01c80636b7b44d7116100955780639666831e116100645780639666831e146102bd578063d6afc9b1146102e8578063d6d48c8d14610313578063f2fde38b1461032a578063f491f31b14610353576100fe565b80636b7b44d714610215578063715018a61461025257806371e17445146102695780638da5cb5b14610292576100fe565b806329b5ddb7116100d157806329b5ddb71461019b57806333c7c026146101c95780635c975abb146101d357806368644c65146101fe576100fe565b8063029652cf146101035780630c6ca0931461013057806312065fe0146101595780631dbe2e0e14610184575b600080fd5b34801561010f57600080fd5b5061011861037e565b60405161012793929190611c9c565b60405180910390f35b34801561013c57600080fd5b5061015760048036038101906101529190611d13565b61039a565b005b34801561016557600080fd5b5061016e6106db565b60405161017b9190611d40565b60405180910390f35b34801561019057600080fd5b5061019961075f565b005b3480156101a757600080fd5b506101b06108ce565b6040516101c09493929190611eb2565b60405180910390f35b6101d1610a60565b005b3480156101df57600080fd5b506101e8610c31565b6040516101f59190611f20565b60405180910390f35b34801561020a57600080fd5b50610213610c47565b005b34801561022157600080fd5b5061023c60048036038101906102379190611f67565b610d02565b60405161024991906120fb565b60405180910390f35b34801561025e57600080fd5b50610267610f57565b005b34801561027557600080fd5b50610290600480360381019061028b9190612252565b610fdf565b005b34801561029e57600080fd5b506102a76111f9565b6040516102b4919061229b565b60405180910390f35b3480156102c957600080fd5b506102d2611222565b6040516102df9190611f20565b60405180910390f35b3480156102f457600080fd5b506102fd611231565b60405161030a91906120fb565b60405180910390f35b34801561031f57600080fd5b50610328611408565b005b34801561033657600080fd5b50610351600480360381019061034c9190611f67565b6114c3565b005b34801561035f57600080fd5b506103686115ba565b60405161037591906122b6565b60405180910390f35b60008060003061038c6111f9565b600554925092509250909192565b6103a2610c31565b156103e2576040517f08c379a00000000000000000000000000000000000000000000000000000000081526004016103d990612324565b60405180910390fd5b600660003373ffffffffffffffffffffffffffffffffffffffff1673ffffffffffffffffffffffffffffffffffffffff16815260200190815260200160002060020160009054906101000a900460ff16600660003373ffffffffffffffffffffffffffffffffffffffff1673ffffffffffffffffffffffffffffffffffffffff16815260200190815260200160002060040160009054906101000a900460ff1660011515821515146104c9576040517f08c379a00000000000000000000000000000000000000000000000000000000081526004016104c0906123b6565b60405180910390fd5b6000151581151514610510576040517f08c379a000000000000000000000000000000000000000000000000000000000815260040161050790612448565b60405180910390fd5b600660003373ffffffffffffffffffffffffffffffffffffffff1673ffffffffffffffffffffffffffffffffffffffff1681526020019081526020016000206003018390806001815401808255809150506001900390600052602060002001600090919091909150557fe501e06382064c08b637bd906f7e816a8bd244d3f37712d2b85eec3cb01dcf8d33846040516105aa929190612468565b60405180910390a1600254600660003373ffffffffffffffffffffffffffffffffffffffff1673ffffffffffffffffffffffffffffffffffffffff16815260200190815260200160002060030180549050036106d6576001600660003373ffffffffffffffffffffffffffffffffffffffff1673ffffffffffffffffffffffffffffffffffffffff16815260200190815260200160002060040160006101000a81548160ff0219169083151502179055507f4733c31819d250478892f1958a412cb4b85316e5c7d217c61cef8521f5d1444f33600660003373ffffffffffffffffffffffffffffffffffffffff1673ffffffffffffffffffffffffffffffffffffffff1681526020019081526020016000206003016040516106cd929190612567565b60405180910390a15b505050565b60006106e56117c4565b73ffffffffffffffffffffffffffffffffffffffff166107036111f9565b73ffffffffffffffffffffffffffffffffffffffff1614610759576040517f08c379a0000000000000000000000000000000000000000000000000000000008152600401610750906125e3565b60405180910390fd5b47905090565b610767610c31565b156107a7576040517f08c379a000000000000000000000000000000000000000000000000000000000815260040161079e90612324565b60405180910390fd5b600660003373ffffffffffffffffffffffffffffffffffffffff1673ffffffffffffffffffffffffffffffffffffffff16815260200190815260200160002060040160009054906101000a900460ff16600115158115151461083e576040517f08c379a00000000000000000000000000000000000000000000000000000000081526004016108359061264f565b60405180910390fd5b60006108486117cc565b905080600660003373ffffffffffffffffffffffffffffffffffffffff1673ffffffffffffffffffffffffffffffffffffffff168152602001908152602001600020600501819055507fd0581392fce4efd24c795f3f1dbb4ac72fd673ee9d8f9696abd1de37b407a23933826040516108c2929190612468565b60405180910390a15050565b600080606080600660003373ffffffffffffffffffffffffffffffffffffffff1673ffffffffffffffffffffffffffffffffffffffff16815260200190815260200160002060040160009054906101000a900460ff16600115158115151461096b576040517f08c379a00000000000000000000000000000000000000000000000000000000081526004016109629061264f565b60405180910390fd5b306002546003600481805461097f9061269e565b80601f01602080910402602001604051908101604052809291908181526020018280546109ab9061269e565b80156109f85780601f106109cd576101008083540402835291602001916109f8565b820191906000526020600020905b8154815290600101906020018083116109db57829003601f168201915b5050505050915080805480602002602001604051908101604052809291908181526020018280548015610a4a57602002820191906000526020600020905b815481526020019060010190808311610a36575b5050505050905094509450945094505090919293565b610a68610c31565b15610aa8576040517f08c379a0000000000000000000000000000000000000000000000000000000008152600401610a9f90612324565b60405180910390fd5b3460055414610aec576040517f08c379a0000000000000000000000000000000000000000000000000000000008152600401610ae390612741565b60405180910390fd5b60001515600660003373ffffffffffffffffffffffffffffffffffffffff1673ffffffffffffffffffffffffffffffffffffffff16815260200190815260200160002060020160009054906101000a900460ff16151514610b82576040517f08c379a0000000000000000000000000000000000000000000000000000000008152600401610b79906127ad565b60405180910390fd5b3460016000828254610b9491906127fc565b925050819055506001600660003373ffffffffffffffffffffffffffffffffffffffff1673ffffffffffffffffffffffffffffffffffffffff16815260200190815260200160002060020160006101000a81548160ff0219169083151502179055507f5abe37385c292c3a2956998c90a47f98a0250a7cbc9d8f4477ecb1e6b8ef317a3334604051610c27929190612468565b60405180910390a1565b60008060009054906101000a900460ff16905090565b610c4f6117c4565b73ffffffffffffffffffffffffffffffffffffffff16610c6d6111f9565b73ffffffffffffffffffffffffffffffffffffffff1614610cc3576040517f08c379a0000000000000000000000000000000000000000000000000000000008152600401610cba906125e3565b60405180910390fd5b7f3ae457c3fc2cdb009906632c85a51ff38f24201f6855609c99aff784b1da738f604051610cf09061289e565b60405180910390a1610d006118fa565b565b610d0a611b02565b610d126117c4565b73ffffffffffffffffffffffffffffffffffffffff16610d306111f9565b73ffffffffffffffffffffffffffffffffffffffff1614610d86576040517f08c379a0000000000000000000000000000000000000000000000000000000008152600401610d7d906125e3565b60405180910390fd5b600660008373ffffffffffffffffffffffffffffffffffffffff1673ffffffffffffffffffffffffffffffffffffffff1681526020019081526020016000206040518060c00160405290816000820160009054906101000a900473ffffffffffffffffffffffffffffffffffffffff1673ffffffffffffffffffffffffffffffffffffffff1673ffffffffffffffffffffffffffffffffffffffff168152602001600182018054610e369061269e565b80601f0160208091040260200160405190810160405280929190818152602001828054610e629061269e565b8015610eaf5780601f10610e8457610100808354040283529160200191610eaf565b820191906000526020600020905b815481529060010190602001808311610e9257829003601f168201915b505050505081526020016002820160009054906101000a900460ff1615151515815260200160038201805480602002602001604051908101604052809291908181526020018280548015610f2257602002820191906000526020600020905b815481526020019060010190808311610f0e575b505050505081526020016004820160009054906101000a900460ff161515151581526020016005820154815250509050919050565b610f5f6117c4565b73ffffffffffffffffffffffffffffffffffffffff16610f7d6111f9565b73ffffffffffffffffffffffffffffffffffffffff1614610fd3576040517f08c379a0000000000000000000000000000000000000000000000000000000008152600401610fca906125e3565b60405180910390fd5b610fdd600061199c565b565b610fe7610c31565b15611027576040517f08c379a000000000000000000000000000000000000000000000000000000000815260040161101e90612324565b60405180910390fd5b61102f611b02565b33816000019073ffffffffffffffffffffffffffffffffffffffff16908173ffffffffffffffffffffffffffffffffffffffff168152505081816020018190525080600660003373ffffffffffffffffffffffffffffffffffffffff1673ffffffffffffffffffffffffffffffffffffffff16815260200190815260200160002060008201518160000160006101000a81548173ffffffffffffffffffffffffffffffffffffffff021916908373ffffffffffffffffffffffffffffffffffffffff1602179055506020820151816001019080519060200190611113929190611b52565b5060408201518160020160006101000a81548160ff0219169083151502179055506060820151816003019080519060200190611150929190611bd8565b5060808201518160040160006101000a81548160ff02191690831515021790555060a082015181600501559050507f69d91c5f944e6da035f2a126b0d12233cf8492ac6dc65940c8a97525bb25f04f33600660003373ffffffffffffffffffffffffffffffffffffffff1673ffffffffffffffffffffffffffffffffffffffff1681526020019081526020016000206040516111ed929190612ad5565b60405180910390a15050565b60008060019054906101000a900473ffffffffffffffffffffffffffffffffffffffff16905090565b600061122c610c31565b905090565b611239611b02565b600660003373ffffffffffffffffffffffffffffffffffffffff1673ffffffffffffffffffffffffffffffffffffffff1681526020019081526020016000206040518060c00160405290816000820160009054906101000a900473ffffffffffffffffffffffffffffffffffffffff1673ffffffffffffffffffffffffffffffffffffffff1673ffffffffffffffffffffffffffffffffffffffff1681526020016001820180546112e99061269e565b80601f01602080910402602001604051908101604052809291908181526020018280546113159061269e565b80156113625780601f1061133757610100808354040283529160200191611362565b820191906000526020600020905b81548152906001019060200180831161134557829003601f168201915b505050505081526020016002820160009054906101000a900460ff16151515158152602001600382018054806020026020016040519081016040528092919081815260200182805480156113d557602002820191906000526020600020905b8154815260200190600101908083116113c1575b505050505081526020016004820160009054906101000a900460ff16151515158152602001600582015481525050905090565b6114106117c4565b73ffffffffffffffffffffffffffffffffffffffff1661142e6111f9565b73ffffffffffffffffffffffffffffffffffffffff1614611484576040517f08c379a000000000000000000000000000000000000000000000000000000000815260040161147b906125e3565b60405180910390fd5b7f0c23a5bf64e0064c2bec16b840d0e891741c429680bb2891bcc8835780f850706040516114b190612b51565b60405180910390a16114c1611a61565b565b6114cb6117c4565b73ffffffffffffffffffffffffffffffffffffffff166114e96111f9565b73ffffffffffffffffffffffffffffffffffffffff161461153f576040517f08c379a0000000000000000000000000000000000000000000000000000000008152600401611536906125e3565b60405180910390fd5b600073ffffffffffffffffffffffffffffffffffffffff168173ffffffffffffffffffffffffffffffffffffffff16036115ae576040517f08c379a00000000000000000000000000000000000000000000000000000000081526004016115a590612be3565b60405180910390fd5b6115b78161199c565b50565b60606115c4610c31565b15611604576040517f08c379a00000000000000000000000000000000000000000000000000000000081526004016115fb90612324565b60405180910390fd5b600660003373ffffffffffffffffffffffffffffffffffffffff1673ffffffffffffffffffffffffffffffffffffffff16815260200190815260200160002060020160009054906101000a900460ff16600660003373ffffffffffffffffffffffffffffffffffffffff1673ffffffffffffffffffffffffffffffffffffffff16815260200190815260200160002060040160009054906101000a900460ff1660011515821515146116eb576040517f08c379a00000000000000000000000000000000000000000000000000000000081526004016116e2906123b6565b60405180910390fd5b6000151581151514611732576040517f08c379a000000000000000000000000000000000000000000000000000000000815260040161172990612448565b60405180910390fd5b6003805461173f9061269e565b80601f016020809104026020016040519081016040528092919081815260200182805461176b9061269e565b80156117b85780601f1061178d576101008083540402835291602001916117b8565b820191906000526020600020905b81548152906001019060200180831161179b57829003601f168201915b50505050509250505090565b600033905090565b6000806000600660003373ffffffffffffffffffffffffffffffffffffffff1673ffffffffffffffffffffffffffffffffffffffff16815260200190815260200160002060030180548060200260200160405190810160405280929190818152602001828054801561185d57602002820191906000526020600020905b815481526020019060010190808311611849575b5050505050905060005b81518110156118d2576004818154811061188457611883612c03565b5b90600052602060002001548282815181106118a2576118a1612c03565b5b6020026020010151036118bf576001836118bc91906127fc565b92505b80806118ca90612c32565b915050611867565b5060006002546064846118e59190612c7a565b6118ef9190612d03565b905080935050505090565b611902610c31565b15611942576040517f08c379a000000000000000000000000000000000000000000000000000000000815260040161193990612324565b60405180910390fd5b60016000806101000a81548160ff0219169083151502179055507f62e78cea01bee320cd4e420270b5ea74000d11b0c9f74754ebdbfc544b05a2586119856117c4565b604051611992919061229b565b60405180910390a1565b60008060019054906101000a900473ffffffffffffffffffffffffffffffffffffffff16905081600060016101000a81548173ffffffffffffffffffffffffffffffffffffffff021916908373ffffffffffffffffffffffffffffffffffffffff1602179055508173ffffffffffffffffffffffffffffffffffffffff168173ffffffffffffffffffffffffffffffffffffffff167f8be0079c531659141344cd1fd0a4f28419497f9722a3daafe3b4186f6b6457e060405160405180910390a35050565b611a69610c31565b611aa8576040517f08c379a0000000000000000000000000000000000000000000000000000000008152600401611a9f90612d80565b60405180910390fd5b60008060006101000a81548160ff0219169083151502179055507f5db9ee0a495bf2e6ff9c91a7834c1ba4fdd244a5e8aa4e537bd38aeae4b073aa611aeb6117c4565b604051611af8919061229b565b60405180910390a1565b6040518060c00160405280600073ffffffffffffffffffffffffffffffffffffffff1681526020016060815260200160001515815260200160608152602001600015158152602001600081525090565b828054611b5e9061269e565b90600052602060002090601f016020900481019282611b805760008555611bc7565b82601f10611b9957805160ff1916838001178555611bc7565b82800160010185558215611bc7579182015b82811115611bc6578251825591602001919060010190611bab565b5b509050611bd49190611c25565b5090565b828054828255906000526020600020908101928215611c14579160200282015b82811115611c13578251825591602001919060010190611bf8565b5b509050611c219190611c25565b5090565b5b80821115611c3e576000816000905550600101611c26565b5090565b600073ffffffffffffffffffffffffffffffffffffffff82169050919050565b6000611c6d82611c42565b9050919050565b611c7d81611c62565b82525050565b6000819050919050565b611c9681611c83565b82525050565b6000606082019050611cb16000830186611c74565b611cbe6020830185611c74565b611ccb6040830184611c8d565b949350505050565b6000604051905090565b600080fd5b600080fd5b611cf081611c83565b8114611cfb57600080fd5b50565b600081359050611d0d81611ce7565b92915050565b600060208284031215611d2957611d28611cdd565b5b6000611d3784828501611cfe565b91505092915050565b6000602082019050611d556000830184611c8d565b92915050565b600081519050919050565b600082825260208201905092915050565b60005b83811015611d95578082015181840152602081019050611d7a565b83811115611da4576000848401525b50505050565b6000601f19601f8301169050919050565b6000611dc682611d5b565b611dd08185611d66565b9350611de0818560208601611d77565b611de981611daa565b840191505092915050565b600081519050919050565b600082825260208201905092915050565b6000819050602082019050919050565b611e2981611c83565b82525050565b6000611e3b8383611e20565b60208301905092915050565b6000602082019050919050565b6000611e5f82611df4565b611e698185611dff565b9350611e7483611e10565b8060005b83811015611ea5578151611e8c8882611e2f565b9750611e9783611e47565b925050600181019050611e78565b5085935050505092915050565b6000608082019050611ec76000830187611c74565b611ed46020830186611c8d565b8181036040830152611ee68185611dbb565b90508181036060830152611efa8184611e54565b905095945050505050565b60008115159050919050565b611f1a81611f05565b82525050565b6000602082019050611f356000830184611f11565b92915050565b611f4481611c62565b8114611f4f57600080fd5b50565b600081359050611f6181611f3b565b92915050565b600060208284031215611f7d57611f7c611cdd565b5b6000611f8b84828501611f52565b91505092915050565b611f9d81611c62565b82525050565b600082825260208201905092915050565b6000611fbf82611d5b565b611fc98185611fa3565b9350611fd9818560208601611d77565b611fe281611daa565b840191505092915050565b611ff681611f05565b82525050565b600082825260208201905092915050565b600061201882611df4565b6120228185611ffc565b935061202d83611e10565b8060005b8381101561205e5781516120458882611e2f565b975061205083611e47565b925050600181019050612031565b5085935050505092915050565b600060c0830160008301516120836000860182611f94565b506020830151848203602086015261209b8282611fb4565b91505060408301516120b06040860182611fed565b50606083015184820360608601526120c8828261200d565b91505060808301516120dd6080860182611fed565b5060a08301516120f060a0860182611e20565b508091505092915050565b60006020820190508181036000830152612115818461206b565b905092915050565b600080fd5b600080fd5b7f4e487b7100000000000000000000000000000000000000000000000000000000600052604160045260246000fd5b61215f82611daa565b810181811067ffffffffffffffff8211171561217e5761217d612127565b5b80604052505050565b6000612191611cd3565b905061219d8282612156565b919050565b600067ffffffffffffffff8211156121bd576121bc612127565b5b6121c682611daa565b9050602081019050919050565b82818337600083830152505050565b60006121f56121f0846121a2565b612187565b90508281526020810184848401111561221157612210612122565b5b61221c8482856121d3565b509392505050565b600082601f8301126122395761223861211d565b5b81356122498482602086016121e2565b91505092915050565b60006020828403121561226857612267611cdd565b5b600082013567ffffffffffffffff81111561228657612285611ce2565b5b61229284828501612224565b91505092915050565b60006020820190506122b06000830184611c74565b92915050565b600060208201905081810360008301526122d08184611dbb565b905092915050565b7f5061757361626c653a2070617573656400000000000000000000000000000000600082015250565b600061230e601083611d66565b9150612319826122d8565b602082019050919050565b6000602082019050818103600083015261233d81612301565b9050919050565b7f506c6561736520636f6d706c65746520746865206578616d206665657320706160008201527f796d656e74000000000000000000000000000000000000000000000000000000602082015250565b60006123a0602583611d66565b91506123ab82612344565b604082019050919050565b600060208201905081810360008301526123cf81612393565b9050919050565b7f596f752061726520616c726561647920617474656e646564207468652065786160008201527f6d00000000000000000000000000000000000000000000000000000000000000602082015250565b6000612432602183611d66565b915061243d826123d6565b604082019050919050565b6000602082019050818103600083015261246181612425565b9050919050565b600060408201905061247d6000830185611c74565b61248a6020830184611c8d565b9392505050565b600081549050919050565b60008190508160005260206000209050919050565b60008160001c9050919050565b6000819050919050565b60006124db6124d6836124b1565b6124be565b9050919050565b60006124ee82546124c8565b9050919050565b6000600182019050919050565b600061250d82612491565b6125178185611dff565b93506125228361249c565b8060005b8381101561255a57612537826124e2565b6125418882611e2f565b975061254c836124f5565b925050600181019050612526565b5085935050505092915050565b600060408201905061257c6000830185611c74565b818103602083015261258e8184612502565b90509392505050565b7f4f776e61626c653a2063616c6c6572206973206e6f7420746865206f776e6572600082015250565b60006125cd602083611d66565b91506125d882612597565b602082019050919050565b600060208201905081810360008301526125fc816125c0565b9050919050565b7f506c656173652066696e697368206578616d2066697273740000000000000000600082015250565b6000612639601883611d66565b915061264482612603565b602082019050919050565b600060208201905081810360008301526126688161262c565b9050919050565b7f4e487b7100000000000000000000000000000000000000000000000000000000600052602260045260246000fd5b600060028204905060018216806126b657607f821691505b6020821081036126c9576126c861266f565b5b50919050565b7f506c65617365207061792074686520636f72726563742066656520616d6f756e60008201527f7400000000000000000000000000000000000000000000000000000000000000602082015250565b600061272b602183611d66565b9150612736826126cf565b604082019050919050565b6000602082019050818103600083015261275a8161271e565b9050919050565b7f416c726561647920666565207061696400000000000000000000000000000000600082015250565b6000612797601083611d66565b91506127a282612761565b602082019050919050565b600060208201905081810360008301526127c68161278a565b9050919050565b7f4e487b7100000000000000000000000000000000000000000000000000000000600052601160045260246000fd5b600061280782611c83565b915061281283611c83565b9250827fffffffffffffffffffffffffffffffffffffffffffffffffffffffffffffffff03821115612847576128466127cd565b5b828201905092915050565b7f4578616d20506175736564000000000000000000000000000000000000000000600082015250565b6000612888600b83611d66565b915061289382612852565b602082019050919050565b600060208201905081810360008301526128b78161287b565b9050919050565b600073ffffffffffffffffffffffffffffffffffffffff82169050919050565b60006128f16128ec836124b1565b6128be565b9050919050565b60008190508160005260206000209050919050565b6000815461291a8161269e565b6129248186611fa3565b9450600182166000811461293f576001811461295157612984565b60ff1983168652602086019350612984565b61295a856128f8565b60005b8381101561297c5781548189015260018201915060208101905061295d565b808801955050505b50505092915050565b600060ff82169050919050565b60006129ad6129a8836124b1565b61298d565b9050919050565b60006129bf82612491565b6129c98185611ffc565b93506129d48361249c565b8060005b83811015612a0c576129e9826124e2565b6129f38882611e2f565b97506129fe836124f5565b9250506001810190506129d8565b5085935050505092915050565b600060c083016000808401549050612a30816128de565b612a3d6000870182611f94565b50600184018583036020870152612a54838261290d565b92505060028401549050612a678161299a565b612a746040870182611fed565b50600384018583036060870152612a8b83826129b4565b92505060048401549050612a9e8161299a565b612aab6080870182611fed565b5060058401549050612abc816124c8565b612ac960a0870182611e20565b50819250505092915050565b6000604082019050612aea6000830185611c74565b8181036020830152612afc8184612a19565b90509392505050565b7f4578616d20756e70617573656400000000000000000000000000000000000000600082015250565b6000612b3b600d83611d66565b9150612b4682612b05565b602082019050919050565b60006020820190508181036000830152612b6a81612b2e565b9050919050565b7f4f776e61626c653a206e6577206f776e657220697320746865207a65726f206160008201527f6464726573730000000000000000000000000000000000000000000000000000602082015250565b6000612bcd602683611d66565b9150612bd882612b71565b604082019050919050565b60006020820190508181036000830152612bfc81612bc0565b9050919050565b7f4e487b7100000000000000000000000000000000000000000000000000000000600052603260045260246000fd5b6000612c3d82611c83565b91507fffffffffffffffffffffffffffffffffffffffffffffffffffffffffffffffff8203612c6f57612c6e6127cd565b5b600182019050919050565b6000612c8582611c83565b9150612c9083611c83565b9250817fffffffffffffffffffffffffffffffffffffffffffffffffffffffffffffffff0483118215151615612cc957612cc86127cd565b5b828202905092915050565b7f4e487b7100000000000000000000000000000000000000000000000000000000600052601260045260246000fd5b6000612d0e82611c83565b9150612d1983611c83565b925082612d2957612d28612cd4565b5b828204905092915050565b7f5061757361626c653a206e6f7420706175736564000000000000000000000000600082015250565b6000612d6a601483611d66565b9150612d7582612d34565b602082019050919050565b60006020820190508181036000830152612d9981612d5d565b905091905056fea2646970667358221220b2bc173d32476456df27845d1f551b46034bd32fdbbe68e95ce5ec9a3f3dfa1164736f6c634300080e0033",
  "immutableReferences": {},
  "source": "// SPDX-License-Identifier: MIT\npragma solidity >=0.4.22 <0.9.0;\n\nimport \"./common/Pausable.sol\";\nimport \"./common/Ownable.sol\";\nimport \"./Student.sol\";\nimport \"./ExamController.sol\";\nimport \"./Validation.sol\";\n\ncontract ExamManagement is Pausable, Ownable, Student, ExamController, Validation{\n    uint256 private balance;\n    uint private num_qus;\n    string private q_hash;\n    uint256[] private ans_key;\n    uint private fee;\n    mapping(address => StudentData) private stdData;\n\n    /**\n     * @dev Sets the values for {num_qus}, {q_hash}, {ans_key} and {fee}.\n     *\n     * The default value of {decimals} is 18. To select a different value for\n     * {decimals} you should overload it.\n     *\n     * All four of these values are immutable: they can only be set once during\n     * construction.\n     */\n\n    constructor(uint _num_qus, string memory _q_hash, uint256[] memory _ans_key, uint _fee){\n        require(_num_qus == _ans_key.length, \"Please check number of questions and answer key count\");\n        num_qus = _num_qus;\n        q_hash = _q_hash;\n        ans_key = _ans_key;\n        fee = _fee;\n    }\n\n    function registerStudent(\n        string memory _email)\n        public virtual override whenNotPaused{\n            StudentData memory std1;\n            std1.wallet = msg.sender;\n            std1.email = _email;\n            stdData[msg.sender] = std1;\n            emit registerStudentEvent(msg.sender, stdData[msg.sender]);\n        }\n\n    function getStudent(address _wallet) \n        public view onlyOwner\n        returns(StudentData memory){\n            return stdData[_wallet];\n    }\n\n    function getProfile() \n        public view virtual override\n        returns(StudentData memory){\n            return stdData[msg.sender];\n        }\n\n    function attendExam() \n        public view virtual override whenNotPaused examEligible(stdData[msg.sender].feePaid, stdData[msg.sender].attempt)\n        returns(string memory){\n            return q_hash;\n    }\n\n    function submitExam(uint _ans)\n        public virtual override whenNotPaused examEligible(stdData[msg.sender].feePaid, stdData[msg.sender].attempt){\n            stdData[msg.sender].ans.push(_ans);\n            emit quesSubmitEvent(msg.sender, _ans);\n            if (stdData[msg.sender].ans.length == num_qus){\n                stdData[msg.sender].attempt = true;\n                emit submitExamEvent(msg.sender, stdData[msg.sender].ans);\n            }            \n    }\n\n    function generateResult()\n        public virtual override whenNotPaused examCompleted(stdData[msg.sender].attempt){\n            uint result  = resultCalculation();\n            stdData[msg.sender].result = result;\n            emit resultEvent(msg.sender, result);\n\n        }\n\n    function resultCalculation() private view returns(uint) {\n        uint count;\n        uint[] memory _ans = stdData[msg.sender].ans;\n        for(uint i = 0; i < _ans.length; i++){\n            if(_ans[i] == ans_key[i]){\n                count+=1;\n            }\n        }\n        uint result = (count * 100)/num_qus;\n        return result;\n    }\n\n\n    function feePayment() \n        public virtual override payable whenNotPaused {\n            require(fee == msg.value, \"Please pay the correct fee amount\");\n            require(stdData[msg.sender].feePaid == false, \"Already fee paid\");\n            balance += msg.value;\n            stdData[msg.sender].feePaid = true;\n            emit feePaymentEvent(msg.sender, msg.value);\n    }\n    \n    function VerifyExam() \n        public view virtual override returns(address, address, uint){\n            return (address(this), owner(), fee);\n    }\n\n    function getExam() \n        public view virtual override examCompleted(stdData[msg.sender].attempt) \n            returns(address, uint, string memory, uint256[] memory){\n                return (address(this), num_qus, q_hash, ans_key);\n    }\n\n    function getBalance() \n        public view virtual override onlyOwner returns(uint256){\n            return address(this).balance;\n    }\n\n    function PauseExam() public virtual override onlyOwner {\n        emit pauseExamEvent(\"Exam Paused\");\n        _pause();\n    }\n\n    function checkExamPaused() public view virtual override returns(bool){\n        return paused();\n    }\n\n    function unPauseExam() public virtual override onlyOwner {\n        emit unPauseExamEvent(\"Exam unpaused\");\n        _unpause();\n    }\n\n\n}",
  "sourcePath": "/home/amal/Documents/Projects/CryptoExam/contracts/ExamManagement.sol",
  "compiler": {
    "name": "solc",
    "version": "0.8.14+commit.80d49f37.Emscripten.clang"
  },
  "schemaVersion": "3.4.5",
  "updatedAt": "2022-05-18T12:14:04.654Z",
  "devdoc": {
    "kind": "dev",
    "methods": {
      "constructor": {
        "details": "Sets the values for {num_qus}, {q_hash}, {ans_key} and {fee}. The default value of {decimals} is 18. To select a different value for {decimals} you should overload it. All four of these values are immutable: they can only be set once during construction."
      },
      "owner()": {
        "details": "Returns the address of the current owner."
      },
      "paused()": {
        "details": "Returns true if the contract is paused, and false otherwise."
      },
      "renounceOwnership()": {
        "details": "Leaves the contract without owner. It will not be possible to call `onlyOwner` functions anymore. Can only be called by the current owner. NOTE: Renouncing ownership will leave the contract without an owner, thereby removing any functionality that is only available to the owner."
      },
      "transferOwnership(address)": {
        "details": "Transfers ownership of the contract to a new account (`newOwner`). Can only be called by the current owner."
      }
    },
    "version": 1
  },
  "userdoc": {
    "kind": "user",
    "methods": {},
    "version": 1
  }
}