{
  "contractName": "ExamManagement",
  "abi": [
    {
      "inputs": [
        {
          "internalType": "uint256",
          "name": "_num_qus",
          "type": "uint256"
        },
        {
          "internalType": "string",
          "name": "_q_hash",
          "type": "string"
        },
        {
          "internalType": "uint256[]",
          "name": "_ans_key",
          "type": "uint256[]"
        },
        {
          "internalType": "uint256",
          "name": "_fee",
          "type": "uint256"
        }
      ],
      "stateMutability": "nonpayable",
      "type": "constructor"
    },
    {
      "anonymous": false,
      "inputs": [
        {
          "indexed": true,
          "internalType": "address",
          "name": "previousOwner",
          "type": "address"
        },
        {
          "indexed": true,
          "internalType": "address",
          "name": "newOwner",
          "type": "address"
        }
      ],
      "name": "OwnershipTransferred",
      "type": "event"
    },
    {
      "anonymous": false,
      "inputs": [
        {
          "indexed": false,
          "internalType": "address",
          "name": "account",
          "type": "address"
        }
      ],
      "name": "Paused",
      "type": "event"
    },
    {
      "anonymous": false,
      "inputs": [
        {
          "indexed": false,
          "internalType": "address",
          "name": "account",
          "type": "address"
        }
      ],
      "name": "Unpaused",
      "type": "event"
    },
    {
      "anonymous": false,
      "inputs": [
        {
          "indexed": false,
          "internalType": "address",
          "name": "from",
          "type": "address"
        },
        {
          "indexed": false,
          "internalType": "uint256",
          "name": "amount",
          "type": "uint256"
        }
      ],
      "name": "feePaymentEvent",
      "type": "event"
    },
    {
      "anonymous": false,
      "inputs": [
        {
          "indexed": false,
          "internalType": "address",
          "name": "_wallet",
          "type": "address"
        },
        {
          "components": [
            {
              "internalType": "address",
              "name": "wallet",
              "type": "address"
            },
            {
              "internalType": "string",
              "name": "email",
              "type": "string"
            },
            {
              "internalType": "bool",
              "name": "feePaid",
              "type": "bool"
            },
            {
              "internalType": "uint256[]",
              "name": "ans",
              "type": "uint256[]"
            },
            {
              "internalType": "bool",
              "name": "attempt",
              "type": "bool"
            },
            {
              "internalType": "uint256",
              "name": "result",
              "type": "uint256"
            }
          ],
          "indexed": false,
          "internalType": "struct Student.StudentData",
          "name": "data",
          "type": "tuple"
        }
      ],
      "name": "registerStudentEvent",
      "type": "event"
    },
    {
      "anonymous": false,
      "inputs": [
        {
          "indexed": false,
          "internalType": "address",
          "name": "wallet",
          "type": "address"
        },
        {
          "indexed": false,
          "internalType": "uint256",
          "name": "result",
          "type": "uint256"
        }
      ],
      "name": "resultEvent",
      "type": "event"
    },
    {
      "anonymous": false,
      "inputs": [
        {
          "indexed": false,
          "internalType": "address",
          "name": "wallet",
          "type": "address"
        },
        {
          "indexed": false,
          "internalType": "uint256[]",
          "name": "ans",
          "type": "uint256[]"
        }
      ],
      "name": "submitExamEvent",
      "type": "event"
    },
    {
      "inputs": [],
      "name": "owner",
      "outputs": [
        {
          "internalType": "address",
          "name": "",
          "type": "address"
        }
      ],
      "stateMutability": "view",
      "type": "function",
      "constant": true
    },
    {
      "inputs": [],
      "name": "paused",
      "outputs": [
        {
          "internalType": "bool",
          "name": "",
          "type": "bool"
        }
      ],
      "stateMutability": "view",
      "type": "function",
      "constant": true
    },
    {
      "inputs": [],
      "name": "renounceOwnership",
      "outputs": [],
      "stateMutability": "nonpayable",
      "type": "function"
    },
    {
      "inputs": [
        {
          "internalType": "address",
          "name": "newOwner",
          "type": "address"
        }
      ],
      "name": "transferOwnership",
      "outputs": [],
      "stateMutability": "nonpayable",
      "type": "function"
    },
    {
      "inputs": [
        {
          "internalType": "string",
          "name": "_email",
          "type": "string"
        }
      ],
      "name": "registerStudent",
      "outputs": [],
      "stateMutability": "nonpayable",
      "type": "function"
    },
    {
      "inputs": [
        {
          "internalType": "address",
          "name": "_wallet",
          "type": "address"
        }
      ],
      "name": "getStudent",
      "outputs": [
        {
          "components": [
            {
              "internalType": "address",
              "name": "wallet",
              "type": "address"
            },
            {
              "internalType": "string",
              "name": "email",
              "type": "string"
            },
            {
              "internalType": "bool",
              "name": "feePaid",
              "type": "bool"
            },
            {
              "internalType": "uint256[]",
              "name": "ans",
              "type": "uint256[]"
            },
            {
              "internalType": "bool",
              "name": "attempt",
              "type": "bool"
            },
            {
              "internalType": "uint256",
              "name": "result",
              "type": "uint256"
            }
          ],
          "internalType": "struct Student.StudentData",
          "name": "",
          "type": "tuple"
        }
      ],
      "stateMutability": "view",
      "type": "function",
      "constant": true
    },
    {
      "inputs": [],
      "name": "getProfile",
      "outputs": [
        {
          "components": [
            {
              "internalType": "address",
              "name": "wallet",
              "type": "address"
            },
            {
              "internalType": "string",
              "name": "email",
              "type": "string"
            },
            {
              "internalType": "bool",
              "name": "feePaid",
              "type": "bool"
            },
            {
              "internalType": "uint256[]",
              "name": "ans",
              "type": "uint256[]"
            },
            {
              "internalType": "bool",
              "name": "attempt",
              "type": "bool"
            },
            {
              "internalType": "uint256",
              "name": "result",
              "type": "uint256"
            }
          ],
          "internalType": "struct Student.StudentData",
          "name": "",
          "type": "tuple"
        }
      ],
      "stateMutability": "view",
      "type": "function",
      "constant": true
    },
    {
      "inputs": [],
      "name": "attendExam",
      "outputs": [
        {
          "internalType": "string",
          "name": "",
          "type": "string"
        }
      ],
      "stateMutability": "view",
      "type": "function",
      "constant": true
    },
    {
      "inputs": [
        {
          "internalType": "uint256[]",
          "name": "_ans",
          "type": "uint256[]"
        }
      ],
      "name": "submitExam",
      "outputs": [],
      "stateMutability": "nonpayable",
      "type": "function"
    },
    {
      "inputs": [],
      "name": "feePayment",
      "outputs": [],
      "stateMutability": "payable",
      "type": "function",
      "payable": true
    },
    {
      "inputs": [],
      "name": "getContractAddress",
      "outputs": [
        {
          "internalType": "address",
          "name": "",
          "type": "address"
        }
      ],
      "stateMutability": "view",
      "type": "function",
      "constant": true
    },
    {
      "inputs": [],
      "name": "getBalance",
      "outputs": [
        {
          "internalType": "uint256",
          "name": "",
          "type": "uint256"
        }
      ],
      "stateMutability": "view",
      "type": "function",
      "constant": true
    },
    {
      "inputs": [],
      "name": "PauseExam",
      "outputs": [],
      "stateMutability": "nonpayable",
      "type": "function"
    },
    {
      "inputs": [],
      "name": "checkExamPaused",
      "outputs": [
        {
          "internalType": "bool",
          "name": "",
          "type": "bool"
        }
      ],
      "stateMutability": "view",
      "type": "function",
      "constant": true
    },
    {
      "inputs": [],
      "name": "unPauseExam",
      "outputs": [],
      "stateMutability": "nonpayable",
      "type": "function"
    }
  ],
  "bytecode": "0x60806040523480156200001157600080fd5b5060405162002d4238038062002d42833981810160405281019062000037919062000583565b60008060006101000a81548160ff02191690831515021790555062000071620000656200010160201b60201c565b6200010960201b60201c565b81518414620000b7576040517f08c379a0000000000000000000000000000000000000000000000000000000008152600401620000ae90620006ba565b60405180910390fd5b836002819055508260039080519060200190620000d6929190620001ce565b508160049080519060200190620000ef9291906200025f565b50806005819055505050505062000740565b600033905090565b60008060019054906101000a900473ffffffffffffffffffffffffffffffffffffffff16905081600060016101000a81548173ffffffffffffffffffffffffffffffffffffffff021916908373ffffffffffffffffffffffffffffffffffffffff1602179055508173ffffffffffffffffffffffffffffffffffffffff168173ffffffffffffffffffffffffffffffffffffffff167f8be0079c531659141344cd1fd0a4f28419497f9722a3daafe3b4186f6b6457e060405160405180910390a35050565b828054620001dc906200070b565b90600052602060002090601f0160209004810192826200020057600085556200024c565b82601f106200021b57805160ff19168380011785556200024c565b828001600101855582156200024c579182015b828111156200024b5782518255916020019190600101906200022e565b5b5090506200025b9190620002b1565b5090565b8280548282559060005260206000209081019282156200029e579160200282015b828111156200029d57825182559160200191906001019062000280565b5b509050620002ad9190620002b1565b5090565b5b80821115620002cc576000816000905550600101620002b2565b5090565b6000604051905090565b600080fd5b600080fd5b6000819050919050565b620002f981620002e4565b81146200030557600080fd5b50565b6000815190506200031981620002ee565b92915050565b600080fd5b600080fd5b6000601f19601f8301169050919050565b7f4e487b7100000000000000000000000000000000000000000000000000000000600052604160045260246000fd5b620003748262000329565b810181811067ffffffffffffffff821117156200039657620003956200033a565b5b80604052505050565b6000620003ab620002d0565b9050620003b9828262000369565b919050565b600067ffffffffffffffff821115620003dc57620003db6200033a565b5b620003e78262000329565b9050602081019050919050565b60005b8381101562000414578082015181840152602081019050620003f7565b8381111562000424576000848401525b50505050565b6000620004416200043b84620003be565b6200039f565b90508281526020810184848401111562000460576200045f62000324565b5b6200046d848285620003f4565b509392505050565b600082601f8301126200048d576200048c6200031f565b5b81516200049f8482602086016200042a565b91505092915050565b600067ffffffffffffffff821115620004c657620004c56200033a565b5b602082029050602081019050919050565b600080fd5b6000620004f3620004ed84620004a8565b6200039f565b90508083825260208201905060208402830185811115620005195762000518620004d7565b5b835b8181101562000546578062000531888262000308565b8452602084019350506020810190506200051b565b5050509392505050565b600082601f8301126200056857620005676200031f565b5b81516200057a848260208601620004dc565b91505092915050565b60008060008060808587031215620005a0576200059f620002da565b5b6000620005b08782880162000308565b945050602085015167ffffffffffffffff811115620005d457620005d3620002df565b5b620005e28782880162000475565b935050604085015167ffffffffffffffff811115620006065762000605620002df565b5b620006148782880162000550565b9250506060620006278782880162000308565b91505092959194509250565b600082825260208201905092915050565b7f506c6561736520636865636b206e756d626572206f66207175657374696f6e7360008201527f20616e6420616e73776572206b657920636f756e740000000000000000000000602082015250565b6000620006a260358362000633565b9150620006af8262000644565b604082019050919050565b60006020820190508181036000830152620006d58162000693565b9050919050565b7f4e487b7100000000000000000000000000000000000000000000000000000000600052602260045260246000fd5b600060028204905060018216806200072457607f821691505b6020821081036200073a5762000739620006dc565b5b50919050565b6125f280620007506000396000f3fe6080604052600436106100e85760003560e01c806371e174451161008a578063d6d48c8d11610059578063d6d48c8d1461028d578063f2679adc146102a4578063f2fde38b146102cd578063f491f31b146102f6576100e8565b806371e17445146101e35780638da5cb5b1461020c5780639666831e14610237578063d6afc9b114610262576100e8565b80635c975abb116100c65780635c975abb1461014d57806368644c65146101785780636b7b44d71461018f578063715018a6146101cc576100e8565b806312065fe0146100ed57806332a2c5d01461011857806333c7c02614610143575b600080fd5b3480156100f957600080fd5b50610102610321565b60405161010f91906116c4565b60405180910390f35b34801561012457600080fd5b5061012d6103a5565b60405161013a9190611720565b60405180910390f35b61014b6103ad565b005b34801561015957600080fd5b506101626104a4565b60405161016f9190611756565b60405180910390f35b34801561018457600080fd5b5061018d6104ba565b005b34801561019b57600080fd5b506101b660048036038101906101b191906117b1565b610540565b6040516101c391906119e3565b60405180910390f35b3480156101d857600080fd5b506101e1610795565b005b3480156101ef57600080fd5b5061020a60048036038101906102059190611b3a565b61081d565b005b34801561021857600080fd5b50610221610a37565b60405161022e9190611720565b60405180910390f35b34801561024357600080fd5b5061024c610a60565b6040516102599190611756565b60405180910390f35b34801561026e57600080fd5b50610277610a6f565b60405161028491906119e3565b60405180910390f35b34801561029957600080fd5b506102a2610c46565b005b3480156102b057600080fd5b506102cb60048036038101906102c69190611c77565b610ccc565b005b3480156102d957600080fd5b506102f460048036038101906102ef91906117b1565b610fc0565b005b34801561030257600080fd5b5061030b6110b7565b6040516103189190611d0a565b60405180910390f35b600061032b6112c1565b73ffffffffffffffffffffffffffffffffffffffff16610349610a37565b73ffffffffffffffffffffffffffffffffffffffff161461039f576040517f08c379a000000000000000000000000000000000000000000000000000000000815260040161039690611d78565b60405180910390fd5b47905090565b600030905090565b6103b56104a4565b156103f5576040517f08c379a00000000000000000000000000000000000000000000000000000000081526004016103ec90611de4565b60405180910390fd5b34600160008282546104079190611e33565b925050819055506001600660003373ffffffffffffffffffffffffffffffffffffffff1673ffffffffffffffffffffffffffffffffffffffff16815260200190815260200160002060020160006101000a81548160ff0219169083151502179055507f5abe37385c292c3a2956998c90a47f98a0250a7cbc9d8f4477ecb1e6b8ef317a333460405161049a929190611e89565b60405180910390a1565b60008060009054906101000a900460ff16905090565b6104c26112c1565b73ffffffffffffffffffffffffffffffffffffffff166104e0610a37565b73ffffffffffffffffffffffffffffffffffffffff1614610536576040517f08c379a000000000000000000000000000000000000000000000000000000000815260040161052d90611d78565b60405180910390fd5b61053e6112c9565b565b61054861156b565b6105506112c1565b73ffffffffffffffffffffffffffffffffffffffff1661056e610a37565b73ffffffffffffffffffffffffffffffffffffffff16146105c4576040517f08c379a00000000000000000000000000000000000000000000000000000000081526004016105bb90611d78565b60405180910390fd5b600660008373ffffffffffffffffffffffffffffffffffffffff1673ffffffffffffffffffffffffffffffffffffffff1681526020019081526020016000206040518060c00160405290816000820160009054906101000a900473ffffffffffffffffffffffffffffffffffffffff1673ffffffffffffffffffffffffffffffffffffffff1673ffffffffffffffffffffffffffffffffffffffff16815260200160018201805461067490611ee1565b80601f01602080910402602001604051908101604052809291908181526020018280546106a090611ee1565b80156106ed5780601f106106c2576101008083540402835291602001916106ed565b820191906000526020600020905b8154815290600101906020018083116106d057829003601f168201915b505050505081526020016002820160009054906101000a900460ff161515151581526020016003820180548060200260200160405190810160405280929190818152602001828054801561076057602002820191906000526020600020905b81548152602001906001019080831161074c575b505050505081526020016004820160009054906101000a900460ff161515151581526020016005820154815250509050919050565b61079d6112c1565b73ffffffffffffffffffffffffffffffffffffffff166107bb610a37565b73ffffffffffffffffffffffffffffffffffffffff1614610811576040517f08c379a000000000000000000000000000000000000000000000000000000000815260040161080890611d78565b60405180910390fd5b61081b600061136b565b565b6108256104a4565b15610865576040517f08c379a000000000000000000000000000000000000000000000000000000000815260040161085c90611de4565b60405180910390fd5b61086d61156b565b33816000019073ffffffffffffffffffffffffffffffffffffffff16908173ffffffffffffffffffffffffffffffffffffffff168152505081816020018190525080600660003373ffffffffffffffffffffffffffffffffffffffff1673ffffffffffffffffffffffffffffffffffffffff16815260200190815260200160002060008201518160000160006101000a81548173ffffffffffffffffffffffffffffffffffffffff021916908373ffffffffffffffffffffffffffffffffffffffff16021790555060208201518160010190805190602001906109519291906115bb565b5060408201518160020160006101000a81548160ff021916908315150217905550606082015181600301908051906020019061098e929190611641565b5060808201518160040160006101000a81548160ff02191690831515021790555060a082015181600501559050507f69d91c5f944e6da035f2a126b0d12233cf8492ac6dc65940c8a97525bb25f04f33600660003373ffffffffffffffffffffffffffffffffffffffff1673ffffffffffffffffffffffffffffffffffffffff168152602001908152602001600020604051610a2b92919061219a565b60405180910390a15050565b60008060019054906101000a900473ffffffffffffffffffffffffffffffffffffffff16905090565b6000610a6a6104a4565b905090565b610a7761156b565b600660003373ffffffffffffffffffffffffffffffffffffffff1673ffffffffffffffffffffffffffffffffffffffff1681526020019081526020016000206040518060c00160405290816000820160009054906101000a900473ffffffffffffffffffffffffffffffffffffffff1673ffffffffffffffffffffffffffffffffffffffff1673ffffffffffffffffffffffffffffffffffffffff168152602001600182018054610b2790611ee1565b80601f0160208091040260200160405190810160405280929190818152602001828054610b5390611ee1565b8015610ba05780601f10610b7557610100808354040283529160200191610ba0565b820191906000526020600020905b815481529060010190602001808311610b8357829003601f168201915b505050505081526020016002820160009054906101000a900460ff1615151515815260200160038201805480602002602001604051908101604052809291908181526020018280548015610c1357602002820191906000526020600020905b815481526020019060010190808311610bff575b505050505081526020016004820160009054906101000a900460ff16151515158152602001600582015481525050905090565b610c4e6112c1565b73ffffffffffffffffffffffffffffffffffffffff16610c6c610a37565b73ffffffffffffffffffffffffffffffffffffffff1614610cc2576040517f08c379a0000000000000000000000000000000000000000000000000000000008152600401610cb990611d78565b60405180910390fd5b610cca611430565b565b610cd46104a4565b15610d14576040517f08c379a0000000000000000000000000000000000000000000000000000000008152600401610d0b90611de4565b60405180910390fd5b600660003373ffffffffffffffffffffffffffffffffffffffff1673ffffffffffffffffffffffffffffffffffffffff16815260200190815260200160002060020160009054906101000a900460ff16600660003373ffffffffffffffffffffffffffffffffffffffff1673ffffffffffffffffffffffffffffffffffffffff16815260200190815260200160002060040160009054906101000a900460ff166001151582151514610dfb576040517f08c379a0000000000000000000000000000000000000000000000000000000008152600401610df29061223c565b60405180910390fd5b6000151581151514610e42576040517f08c379a0000000000000000000000000000000000000000000000000000000008152600401610e39906122ce565b60405180910390fd5b82600660003373ffffffffffffffffffffffffffffffffffffffff1673ffffffffffffffffffffffffffffffffffffffff1681526020019081526020016000206003019080519060200190610e98929190611641565b506001600660003373ffffffffffffffffffffffffffffffffffffffff1673ffffffffffffffffffffffffffffffffffffffff16815260200190815260200160002060040160006101000a81548160ff0219169083151502179055507f4733c31819d250478892f1958a412cb4b85316e5c7d217c61cef8521f5d1444f3384604051610f2592919061235d565b60405180910390a16000610f38846114d1565b905080600660003373ffffffffffffffffffffffffffffffffffffffff1673ffffffffffffffffffffffffffffffffffffffff168152602001908152602001600020600501819055507fd0581392fce4efd24c795f3f1dbb4ac72fd673ee9d8f9696abd1de37b407a2393382604051610fb2929190611e89565b60405180910390a150505050565b610fc86112c1565b73ffffffffffffffffffffffffffffffffffffffff16610fe6610a37565b73ffffffffffffffffffffffffffffffffffffffff161461103c576040517f08c379a000000000000000000000000000000000000000000000000000000000815260040161103390611d78565b60405180910390fd5b600073ffffffffffffffffffffffffffffffffffffffff168173ffffffffffffffffffffffffffffffffffffffff16036110ab576040517f08c379a00000000000000000000000000000000000000000000000000000000081526004016110a2906123ff565b60405180910390fd5b6110b48161136b565b50565b60606110c16104a4565b15611101576040517f08c379a00000000000000000000000000000000000000000000000000000000081526004016110f890611de4565b60405180910390fd5b600660003373ffffffffffffffffffffffffffffffffffffffff1673ffffffffffffffffffffffffffffffffffffffff16815260200190815260200160002060020160009054906101000a900460ff16600660003373ffffffffffffffffffffffffffffffffffffffff1673ffffffffffffffffffffffffffffffffffffffff16815260200190815260200160002060040160009054906101000a900460ff1660011515821515146111e8576040517f08c379a00000000000000000000000000000000000000000000000000000000081526004016111df9061223c565b60405180910390fd5b600015158115151461122f576040517f08c379a0000000000000000000000000000000000000000000000000000000008152600401611226906122ce565b60405180910390fd5b6003805461123c90611ee1565b80601f016020809104026020016040519081016040528092919081815260200182805461126890611ee1565b80156112b55780601f1061128a576101008083540402835291602001916112b5565b820191906000526020600020905b81548152906001019060200180831161129857829003601f168201915b50505050509250505090565b600033905090565b6112d16104a4565b15611311576040517f08c379a000000000000000000000000000000000000000000000000000000000815260040161130890611de4565b60405180910390fd5b60016000806101000a81548160ff0219169083151502179055507f62e78cea01bee320cd4e420270b5ea74000d11b0c9f74754ebdbfc544b05a2586113546112c1565b6040516113619190611720565b60405180910390a1565b60008060019054906101000a900473ffffffffffffffffffffffffffffffffffffffff16905081600060016101000a81548173ffffffffffffffffffffffffffffffffffffffff021916908373ffffffffffffffffffffffffffffffffffffffff1602179055508173ffffffffffffffffffffffffffffffffffffffff168173ffffffffffffffffffffffffffffffffffffffff167f8be0079c531659141344cd1fd0a4f28419497f9722a3daafe3b4186f6b6457e060405160405180910390a35050565b6114386104a4565b611477576040517f08c379a000000000000000000000000000000000000000000000000000000000815260040161146e9061246b565b60405180910390fd5b60008060006101000a81548160ff0219169083151502179055507f5db9ee0a495bf2e6ff9c91a7834c1ba4fdd244a5e8aa4e537bd38aeae4b073aa6114ba6112c1565b6040516114c79190611720565b60405180910390a1565b60008060005b835181101561154257600481815481106114f4576114f361248b565b5b90600052602060002001548482815181106115125761151161248b565b5b60200260200101510361152f5760018261152c9190611e33565b91505b808061153a906124ba565b9150506114d7565b5060006002546064836115559190612502565b61155f919061258b565b90508092505050919050565b6040518060c00160405280600073ffffffffffffffffffffffffffffffffffffffff1681526020016060815260200160001515815260200160608152602001600015158152602001600081525090565b8280546115c790611ee1565b90600052602060002090601f0160209004810192826115e95760008555611630565b82601f1061160257805160ff1916838001178555611630565b82800160010185558215611630579182015b8281111561162f578251825591602001919060010190611614565b5b50905061163d919061168e565b5090565b82805482825590600052602060002090810192821561167d579160200282015b8281111561167c578251825591602001919060010190611661565b5b50905061168a919061168e565b5090565b5b808211156116a757600081600090555060010161168f565b5090565b6000819050919050565b6116be816116ab565b82525050565b60006020820190506116d960008301846116b5565b92915050565b600073ffffffffffffffffffffffffffffffffffffffff82169050919050565b600061170a826116df565b9050919050565b61171a816116ff565b82525050565b60006020820190506117356000830184611711565b92915050565b60008115159050919050565b6117508161173b565b82525050565b600060208201905061176b6000830184611747565b92915050565b6000604051905090565b600080fd5b600080fd5b61178e816116ff565b811461179957600080fd5b50565b6000813590506117ab81611785565b92915050565b6000602082840312156117c7576117c661177b565b5b60006117d58482850161179c565b91505092915050565b6117e7816116ff565b82525050565b600081519050919050565b600082825260208201905092915050565b60005b8381101561182757808201518184015260208101905061180c565b83811115611836576000848401525b50505050565b6000601f19601f8301169050919050565b6000611858826117ed565b61186281856117f8565b9350611872818560208601611809565b61187b8161183c565b840191505092915050565b61188f8161173b565b82525050565b600081519050919050565b600082825260208201905092915050565b6000819050602082019050919050565b6118ca816116ab565b82525050565b60006118dc83836118c1565b60208301905092915050565b6000602082019050919050565b600061190082611895565b61190a81856118a0565b9350611915836118b1565b8060005b8381101561194657815161192d88826118d0565b9750611938836118e8565b925050600181019050611919565b5085935050505092915050565b600060c08301600083015161196b60008601826117de565b5060208301518482036020860152611983828261184d565b91505060408301516119986040860182611886565b50606083015184820360608601526119b082826118f5565b91505060808301516119c56080860182611886565b5060a08301516119d860a08601826118c1565b508091505092915050565b600060208201905081810360008301526119fd8184611953565b905092915050565b600080fd5b600080fd5b7f4e487b7100000000000000000000000000000000000000000000000000000000600052604160045260246000fd5b611a478261183c565b810181811067ffffffffffffffff82111715611a6657611a65611a0f565b5b80604052505050565b6000611a79611771565b9050611a858282611a3e565b919050565b600067ffffffffffffffff821115611aa557611aa4611a0f565b5b611aae8261183c565b9050602081019050919050565b82818337600083830152505050565b6000611add611ad884611a8a565b611a6f565b905082815260208101848484011115611af957611af8611a0a565b5b611b04848285611abb565b509392505050565b600082601f830112611b2157611b20611a05565b5b8135611b31848260208601611aca565b91505092915050565b600060208284031215611b5057611b4f61177b565b5b600082013567ffffffffffffffff811115611b6e57611b6d611780565b5b611b7a84828501611b0c565b91505092915050565b600067ffffffffffffffff821115611b9e57611b9d611a0f565b5b602082029050602081019050919050565b600080fd5b611bbd816116ab565b8114611bc857600080fd5b50565b600081359050611bda81611bb4565b92915050565b6000611bf3611bee84611b83565b611a6f565b90508083825260208201905060208402830185811115611c1657611c15611baf565b5b835b81811015611c3f5780611c2b8882611bcb565b845260208401935050602081019050611c18565b5050509392505050565b600082601f830112611c5e57611c5d611a05565b5b8135611c6e848260208601611be0565b91505092915050565b600060208284031215611c8d57611c8c61177b565b5b600082013567ffffffffffffffff811115611cab57611caa611780565b5b611cb784828501611c49565b91505092915050565b600082825260208201905092915050565b6000611cdc826117ed565b611ce68185611cc0565b9350611cf6818560208601611809565b611cff8161183c565b840191505092915050565b60006020820190508181036000830152611d248184611cd1565b905092915050565b7f4f776e61626c653a2063616c6c6572206973206e6f7420746865206f776e6572600082015250565b6000611d62602083611cc0565b9150611d6d82611d2c565b602082019050919050565b60006020820190508181036000830152611d9181611d55565b9050919050565b7f5061757361626c653a2070617573656400000000000000000000000000000000600082015250565b6000611dce601083611cc0565b9150611dd982611d98565b602082019050919050565b60006020820190508181036000830152611dfd81611dc1565b9050919050565b7f4e487b7100000000000000000000000000000000000000000000000000000000600052601160045260246000fd5b6000611e3e826116ab565b9150611e49836116ab565b9250827fffffffffffffffffffffffffffffffffffffffffffffffffffffffffffffffff03821115611e7e57611e7d611e04565b5b828201905092915050565b6000604082019050611e9e6000830185611711565b611eab60208301846116b5565b9392505050565b7f4e487b7100000000000000000000000000000000000000000000000000000000600052602260045260246000fd5b60006002820490506001821680611ef957607f821691505b602082108103611f0c57611f0b611eb2565b5b50919050565b60008160001c9050919050565b600073ffffffffffffffffffffffffffffffffffffffff82169050919050565b6000611f52611f4d83611f12565b611f1f565b9050919050565b60008190508160005260206000209050919050565b60008154611f7b81611ee1565b611f8581866117f8565b94506001821660008114611fa05760018114611fb257611fe5565b60ff1983168652602086019350611fe5565b611fbb85611f59565b60005b83811015611fdd57815481890152600182019150602081019050611fbe565b808801955050505b50505092915050565b600060ff82169050919050565b600061200e61200983611f12565b611fee565b9050919050565b600081549050919050565b60008190508160005260206000209050919050565b6000819050919050565b600061205261204d83611f12565b612035565b9050919050565b6000612065825461203f565b9050919050565b6000600182019050919050565b600061208482612015565b61208e81856118a0565b935061209983612020565b8060005b838110156120d1576120ae82612059565b6120b888826118d0565b97506120c38361206c565b92505060018101905061209d565b5085935050505092915050565b600060c0830160008084015490506120f581611f3f565b61210260008701826117de565b506001840185830360208701526121198382611f6e565b9250506002840154905061212c81611ffb565b6121396040870182611886565b506003840185830360608701526121508382612079565b9250506004840154905061216381611ffb565b6121706080870182611886565b50600584015490506121818161203f565b61218e60a08701826118c1565b50819250505092915050565b60006040820190506121af6000830185611711565b81810360208301526121c181846120de565b90509392505050565b7f506c6561736520636f6d706c65746520746865206578616d206665657320706160008201527f796d656e74000000000000000000000000000000000000000000000000000000602082015250565b6000612226602583611cc0565b9150612231826121ca565b604082019050919050565b6000602082019050818103600083015261225581612219565b9050919050565b7f596f752061726520616c726561647920617474656e646564207468652065786160008201527f6d00000000000000000000000000000000000000000000000000000000000000602082015250565b60006122b8602183611cc0565b91506122c38261225c565b604082019050919050565b600060208201905081810360008301526122e7816122ab565b9050919050565b600082825260208201905092915050565b600061230a82611895565b61231481856122ee565b935061231f836118b1565b8060005b8381101561235057815161233788826118d0565b9750612342836118e8565b925050600181019050612323565b5085935050505092915050565b60006040820190506123726000830185611711565b818103602083015261238481846122ff565b90509392505050565b7f4f776e61626c653a206e6577206f776e657220697320746865207a65726f206160008201527f6464726573730000000000000000000000000000000000000000000000000000602082015250565b60006123e9602683611cc0565b91506123f48261238d565b604082019050919050565b60006020820190508181036000830152612418816123dc565b9050919050565b7f5061757361626c653a206e6f7420706175736564000000000000000000000000600082015250565b6000612455601483611cc0565b91506124608261241f565b602082019050919050565b6000602082019050818103600083015261248481612448565b9050919050565b7f4e487b7100000000000000000000000000000000000000000000000000000000600052603260045260246000fd5b60006124c5826116ab565b91507fffffffffffffffffffffffffffffffffffffffffffffffffffffffffffffffff82036124f7576124f6611e04565b5b600182019050919050565b600061250d826116ab565b9150612518836116ab565b9250817fffffffffffffffffffffffffffffffffffffffffffffffffffffffffffffffff048311821515161561255157612550611e04565b5b828202905092915050565b7f4e487b7100000000000000000000000000000000000000000000000000000000600052601260045260246000fd5b6000612596826116ab565b91506125a1836116ab565b9250826125b1576125b061255c565b5b82820490509291505056fea2646970667358221220740b3af75a916d9ab866bf5e304454e7a0f2528a982a5853231941d010281e9a64736f6c634300080d0033",
  "immutableReferences": {},
  "source": "// SPDX-License-Identifier: MIT\npragma solidity >=0.4.22 <0.9.0;\n\nimport \"@openzeppelin/contracts/security/Pausable.sol\";\nimport \"@openzeppelin/contracts/access/Ownable.sol\";\nimport \"./Student.sol\";\nimport \"./Validation.sol\";\n\ncontract ExamManagement is Pausable, Ownable, Student, Validation{\n    uint256 private balance;\n    uint private num_qus;\n    string private q_hash;\n    uint[] private ans_key;\n    uint private fee;\n    mapping(address => StudentData) private stdData;\n\n    /**\n     * @dev Sets the values for {num_qus}, {q_hash}, {ans_key} and {fee}.\n     *\n     * The default value of {decimals} is 18. To select a different value for\n     * {decimals} you should overload it.\n     *\n     * All four of these values are immutable: they can only be set once during\n     * construction.\n     */\n\n    constructor(uint _num_qus, string memory _q_hash, uint[] memory _ans_key, uint _fee){\n        require(_num_qus == _ans_key.length, \"Please check number of questions and answer key count\");\n        num_qus = _num_qus;\n        q_hash = _q_hash;\n        ans_key = _ans_key;\n        fee = _fee;\n    }\n\n    function registerStudent(\n        string memory _email)\n        public virtual override whenNotPaused{\n            StudentData memory std1;\n            std1.wallet = msg.sender;\n            std1.email = _email;\n            stdData[msg.sender] = std1;\n            emit registerStudentEvent(msg.sender, stdData[msg.sender]);\n        }\n\n    function getStudent(address _wallet) \n        public view onlyOwner\n        returns(StudentData memory){\n            return stdData[_wallet];\n    }\n\n    function getProfile() \n        public view virtual override\n        returns(StudentData memory){\n            return stdData[msg.sender];\n        }\n\n    function attendExam() \n        public view virtual override whenNotPaused examEligible(stdData[msg.sender].feePaid, stdData[msg.sender].attempt)\n        returns(string memory){\n            return q_hash;\n    }\n\n    function submitExam(uint[] memory _ans)\n        public virtual override whenNotPaused examEligible(stdData[msg.sender].feePaid, stdData[msg.sender].attempt){\n            stdData[msg.sender].ans = _ans;\n            stdData[msg.sender].attempt = true;\n            emit submitExamEvent(msg.sender, _ans);\n            uint result  = resultCalculation(_ans);\n            stdData[msg.sender].result = result;\n            emit resultEvent(msg.sender, result);\n    }\n\n    function resultCalculation(uint[] memory _ans) private view returns(uint) {\n        uint count;\n        for(uint i = 0; i < _ans.length; i++){\n            if(_ans[i] == ans_key[i]){\n                count+=1;\n            }\n        }\n        uint result = (count * 100)/num_qus;\n        return result;\n    }\n\n\n    function feePayment() public virtual override payable whenNotPaused {\n        //require((fee + 20 * (1 ether)) == msg.value, \"Please pay the correct fee amount\");\n        balance += msg.value;\n        stdData[msg.sender].feePaid = true;\n        emit feePaymentEvent(msg.sender, msg.value);\n    }\n    \n    function getContractAddress() public view returns(address){\n        return address(this);\n    }\n\n    function getBalance() public view onlyOwner returns(uint256){\n        return address(this).balance;\n    }\n\n    function PauseExam() public onlyOwner {\n        _pause();\n    }\n\n    function checkExamPaused() public view returns(bool){\n        return paused();\n    }\n\n    function unPauseExam() public onlyOwner {\n        _unpause();\n    }\n\n\n}",
  "sourcePath": "/home/amal/Documents/Projects/CryptoExam/contracts/ExamManagement.sol",
  "compiler": {
    "name": "solc",
    "version": "0.8.13+commit.abaa5c0e.Emscripten.clang"
  },
  "schemaVersion": "3.4.5",
  "updatedAt": "2022-05-13T12:33:14.681Z",
  "networkType": "ethereum",
  "devdoc": {
    "kind": "dev",
    "methods": {
      "constructor": {
        "details": "Sets the values for {num_qus}, {q_hash}, {ans_key} and {fee}. The default value of {decimals} is 18. To select a different value for {decimals} you should overload it. All four of these values are immutable: they can only be set once during construction."
      },
      "owner()": {
        "details": "Returns the address of the current owner."
      },
      "paused()": {
        "details": "Returns true if the contract is paused, and false otherwise."
      },
      "renounceOwnership()": {
        "details": "Leaves the contract without owner. It will not be possible to call `onlyOwner` functions anymore. Can only be called by the current owner. NOTE: Renouncing ownership will leave the contract without an owner, thereby removing any functionality that is only available to the owner."
      },
      "transferOwnership(address)": {
        "details": "Transfers ownership of the contract to a new account (`newOwner`). Can only be called by the current owner."
      }
    },
    "version": 1
  },
  "userdoc": {
    "kind": "user",
    "methods": {},
    "version": 1
  }
}