{
  "contractName": "ExamManagement",
  "abi": [
    {
      "inputs": [
        {
          "internalType": "uint256",
          "name": "_num_qus",
          "type": "uint256"
        },
        {
          "internalType": "string",
          "name": "_q_hash",
          "type": "string"
        },
        {
          "internalType": "uint256[]",
          "name": "_ans_key",
          "type": "uint256[]"
        },
        {
          "internalType": "uint256",
          "name": "_fee",
          "type": "uint256"
        }
      ],
      "stateMutability": "nonpayable",
      "type": "constructor"
    },
    {
      "anonymous": false,
      "inputs": [
        {
          "indexed": true,
          "internalType": "address",
          "name": "previousOwner",
          "type": "address"
        },
        {
          "indexed": true,
          "internalType": "address",
          "name": "newOwner",
          "type": "address"
        }
      ],
      "name": "OwnershipTransferred",
      "type": "event"
    },
    {
      "anonymous": false,
      "inputs": [
        {
          "indexed": false,
          "internalType": "address",
          "name": "account",
          "type": "address"
        }
      ],
      "name": "Paused",
      "type": "event"
    },
    {
      "anonymous": false,
      "inputs": [
        {
          "indexed": false,
          "internalType": "address",
          "name": "account",
          "type": "address"
        }
      ],
      "name": "Unpaused",
      "type": "event"
    },
    {
      "anonymous": false,
      "inputs": [
        {
          "indexed": false,
          "internalType": "address",
          "name": "from",
          "type": "address"
        },
        {
          "indexed": false,
          "internalType": "uint256",
          "name": "amount",
          "type": "uint256"
        }
      ],
      "name": "feePaymentEvent",
      "type": "event"
    },
    {
      "anonymous": false,
      "inputs": [
        {
          "indexed": false,
          "internalType": "address",
          "name": "wallet",
          "type": "address"
        },
        {
          "indexed": false,
          "internalType": "uint256",
          "name": "ans",
          "type": "uint256"
        }
      ],
      "name": "quesSubmitEvent",
      "type": "event"
    },
    {
      "anonymous": false,
      "inputs": [
        {
          "indexed": false,
          "internalType": "address",
          "name": "_wallet",
          "type": "address"
        },
        {
          "components": [
            {
              "internalType": "address",
              "name": "wallet",
              "type": "address"
            },
            {
              "internalType": "string",
              "name": "email",
              "type": "string"
            },
            {
              "internalType": "bool",
              "name": "feePaid",
              "type": "bool"
            },
            {
              "internalType": "uint256[]",
              "name": "ans",
              "type": "uint256[]"
            },
            {
              "internalType": "bool",
              "name": "attempt",
              "type": "bool"
            },
            {
              "internalType": "uint256",
              "name": "result",
              "type": "uint256"
            }
          ],
          "indexed": false,
          "internalType": "struct Student.StudentData",
          "name": "data",
          "type": "tuple"
        }
      ],
      "name": "registerStudentEvent",
      "type": "event"
    },
    {
      "anonymous": false,
      "inputs": [
        {
          "indexed": false,
          "internalType": "address",
          "name": "wallet",
          "type": "address"
        },
        {
          "indexed": false,
          "internalType": "uint256",
          "name": "result",
          "type": "uint256"
        }
      ],
      "name": "resultEvent",
      "type": "event"
    },
    {
      "anonymous": false,
      "inputs": [
        {
          "indexed": false,
          "internalType": "address",
          "name": "wallet",
          "type": "address"
        },
        {
          "indexed": false,
          "internalType": "uint256[]",
          "name": "ans",
          "type": "uint256[]"
        }
      ],
      "name": "submitExamEvent",
      "type": "event"
    },
    {
      "inputs": [],
      "name": "owner",
      "outputs": [
        {
          "internalType": "address",
          "name": "",
          "type": "address"
        }
      ],
      "stateMutability": "view",
      "type": "function"
    },
    {
      "inputs": [],
      "name": "paused",
      "outputs": [
        {
          "internalType": "bool",
          "name": "",
          "type": "bool"
        }
      ],
      "stateMutability": "view",
      "type": "function"
    },
    {
      "inputs": [],
      "name": "renounceOwnership",
      "outputs": [],
      "stateMutability": "nonpayable",
      "type": "function"
    },
    {
      "inputs": [
        {
          "internalType": "address",
          "name": "newOwner",
          "type": "address"
        }
      ],
      "name": "transferOwnership",
      "outputs": [],
      "stateMutability": "nonpayable",
      "type": "function"
    },
    {
      "inputs": [
        {
          "internalType": "string",
          "name": "_email",
          "type": "string"
        }
      ],
      "name": "registerStudent",
      "outputs": [],
      "stateMutability": "nonpayable",
      "type": "function"
    },
    {
      "inputs": [
        {
          "internalType": "address",
          "name": "_wallet",
          "type": "address"
        }
      ],
      "name": "getStudent",
      "outputs": [
        {
          "components": [
            {
              "internalType": "address",
              "name": "wallet",
              "type": "address"
            },
            {
              "internalType": "string",
              "name": "email",
              "type": "string"
            },
            {
              "internalType": "bool",
              "name": "feePaid",
              "type": "bool"
            },
            {
              "internalType": "uint256[]",
              "name": "ans",
              "type": "uint256[]"
            },
            {
              "internalType": "bool",
              "name": "attempt",
              "type": "bool"
            },
            {
              "internalType": "uint256",
              "name": "result",
              "type": "uint256"
            }
          ],
          "internalType": "struct Student.StudentData",
          "name": "",
          "type": "tuple"
        }
      ],
      "stateMutability": "view",
      "type": "function"
    },
    {
      "inputs": [],
      "name": "getProfile",
      "outputs": [
        {
          "components": [
            {
              "internalType": "address",
              "name": "wallet",
              "type": "address"
            },
            {
              "internalType": "string",
              "name": "email",
              "type": "string"
            },
            {
              "internalType": "bool",
              "name": "feePaid",
              "type": "bool"
            },
            {
              "internalType": "uint256[]",
              "name": "ans",
              "type": "uint256[]"
            },
            {
              "internalType": "bool",
              "name": "attempt",
              "type": "bool"
            },
            {
              "internalType": "uint256",
              "name": "result",
              "type": "uint256"
            }
          ],
          "internalType": "struct Student.StudentData",
          "name": "",
          "type": "tuple"
        }
      ],
      "stateMutability": "view",
      "type": "function"
    },
    {
      "inputs": [],
      "name": "attendExam",
      "outputs": [
        {
          "internalType": "string",
          "name": "",
          "type": "string"
        }
      ],
      "stateMutability": "view",
      "type": "function"
    },
    {
      "inputs": [
        {
          "internalType": "uint256",
          "name": "_ans",
          "type": "uint256"
        }
      ],
      "name": "submitExam",
      "outputs": [],
      "stateMutability": "nonpayable",
      "type": "function"
    },
    {
      "inputs": [],
      "name": "generateResult",
      "outputs": [],
      "stateMutability": "nonpayable",
      "type": "function"
    },
    {
      "inputs": [],
      "name": "feePayment",
      "outputs": [],
      "stateMutability": "payable",
      "type": "function"
    },
    {
      "inputs": [],
      "name": "getContractAddress",
      "outputs": [
        {
          "internalType": "address",
          "name": "",
          "type": "address"
        }
      ],
      "stateMutability": "view",
      "type": "function"
    },
    {
      "inputs": [],
      "name": "getBalance",
      "outputs": [
        {
          "internalType": "uint256",
          "name": "",
          "type": "uint256"
        }
      ],
      "stateMutability": "view",
      "type": "function"
    },
    {
      "inputs": [],
      "name": "PauseExam",
      "outputs": [],
      "stateMutability": "nonpayable",
      "type": "function"
    },
    {
      "inputs": [],
      "name": "checkExamPaused",
      "outputs": [
        {
          "internalType": "bool",
          "name": "",
          "type": "bool"
        }
      ],
      "stateMutability": "view",
      "type": "function"
    },
    {
      "inputs": [],
      "name": "unPauseExam",
      "outputs": [],
      "stateMutability": "nonpayable",
      "type": "function"
    }
  ],
  "bytecode": "0x60806040523480156200001157600080fd5b5060405162002f4338038062002f43833981810160405281019062000037919062000583565b60008060006101000a81548160ff02191690831515021790555062000071620000656200010160201b60201c565b6200010960201b60201c565b81518414620000b7576040517f08c379a0000000000000000000000000000000000000000000000000000000008152600401620000ae90620006ba565b60405180910390fd5b836002819055508260039080519060200190620000d6929190620001ce565b508160049080519060200190620000ef9291906200025f565b50806005819055505050505062000740565b600033905090565b60008060019054906101000a900473ffffffffffffffffffffffffffffffffffffffff16905081600060016101000a81548173ffffffffffffffffffffffffffffffffffffffff021916908373ffffffffffffffffffffffffffffffffffffffff1602179055508173ffffffffffffffffffffffffffffffffffffffff168173ffffffffffffffffffffffffffffffffffffffff167f8be0079c531659141344cd1fd0a4f28419497f9722a3daafe3b4186f6b6457e060405160405180910390a35050565b828054620001dc906200070b565b90600052602060002090601f0160209004810192826200020057600085556200024c565b82601f106200021b57805160ff19168380011785556200024c565b828001600101855582156200024c579182015b828111156200024b5782518255916020019190600101906200022e565b5b5090506200025b9190620002b1565b5090565b8280548282559060005260206000209081019282156200029e579160200282015b828111156200029d57825182559160200191906001019062000280565b5b509050620002ad9190620002b1565b5090565b5b80821115620002cc576000816000905550600101620002b2565b5090565b6000604051905090565b600080fd5b600080fd5b6000819050919050565b620002f981620002e4565b81146200030557600080fd5b50565b6000815190506200031981620002ee565b92915050565b600080fd5b600080fd5b6000601f19601f8301169050919050565b7f4e487b7100000000000000000000000000000000000000000000000000000000600052604160045260246000fd5b620003748262000329565b810181811067ffffffffffffffff821117156200039657620003956200033a565b5b80604052505050565b6000620003ab620002d0565b9050620003b9828262000369565b919050565b600067ffffffffffffffff821115620003dc57620003db6200033a565b5b620003e78262000329565b9050602081019050919050565b60005b8381101562000414578082015181840152602081019050620003f7565b8381111562000424576000848401525b50505050565b6000620004416200043b84620003be565b6200039f565b90508281526020810184848401111562000460576200045f62000324565b5b6200046d848285620003f4565b509392505050565b600082601f8301126200048d576200048c6200031f565b5b81516200049f8482602086016200042a565b91505092915050565b600067ffffffffffffffff821115620004c657620004c56200033a565b5b602082029050602081019050919050565b600080fd5b6000620004f3620004ed84620004a8565b6200039f565b90508083825260208201905060208402830185811115620005195762000518620004d7565b5b835b8181101562000546578062000531888262000308565b8452602084019350506020810190506200051b565b5050509392505050565b600082601f8301126200056857620005676200031f565b5b81516200057a848260208601620004dc565b91505092915050565b60008060008060808587031215620005a0576200059f620002da565b5b6000620005b08782880162000308565b945050602085015167ffffffffffffffff811115620005d457620005d3620002df565b5b620005e28782880162000475565b935050604085015167ffffffffffffffff811115620006065762000605620002df565b5b620006148782880162000550565b9250506060620006278782880162000308565b91505092959194509250565b600082825260208201905092915050565b7f506c6561736520636865636b206e756d626572206f66207175657374696f6e7360008201527f20616e6420616e73776572206b657920636f756e740000000000000000000000602082015250565b6000620006a260358362000633565b9150620006af8262000644565b604082019050919050565b60006020820190508181036000830152620006d58162000693565b9050919050565b7f4e487b7100000000000000000000000000000000000000000000000000000000600052602260045260246000fd5b600060028204905060018216806200072457607f821691505b6020821081036200073a5762000739620006dc565b5b50919050565b6127f380620007506000396000f3fe6080604052600436106100f35760003560e01c8063715018a61161008a578063d6afc9b111610059578063d6afc9b1146102ad578063d6d48c8d146102d8578063f2fde38b146102ef578063f491f31b14610318576100f3565b8063715018a61461021757806371e174451461022e5780638da5cb5b146102575780639666831e14610282576100f3565b806333c7c026116100c657806333c7c0261461018e5780635c975abb1461019857806368644c65146101c35780636b7b44d7146101da576100f3565b80630c6ca093146100f857806312065fe0146101215780631dbe2e0e1461014c57806332a2c5d014610163575b600080fd5b34801561010457600080fd5b5061011f600480360381019061011a9190611967565b610343565b005b34801561012d57600080fd5b50610136610684565b60405161014391906119a3565b60405180910390f35b34801561015857600080fd5b50610161610708565b005b34801561016f57600080fd5b50610178610877565b60405161018591906119ff565b60405180910390f35b61019661087f565b005b3480156101a457600080fd5b506101ad610976565b6040516101ba9190611a35565b60405180910390f35b3480156101cf57600080fd5b506101d861098c565b005b3480156101e657600080fd5b5061020160048036038101906101fc9190611a7c565b610a12565b60405161020e9190611cae565b60405180910390f35b34801561022357600080fd5b5061022c610c67565b005b34801561023a57600080fd5b5061025560048036038101906102509190611e05565b610cef565b005b34801561026357600080fd5b5061026c610f09565b60405161027991906119ff565b60405180910390f35b34801561028e57600080fd5b50610297610f32565b6040516102a49190611a35565b60405180910390f35b3480156102b957600080fd5b506102c2610f41565b6040516102cf9190611cae565b60405180910390f35b3480156102e457600080fd5b506102ed611118565b005b3480156102fb57600080fd5b5061031660048036038101906103119190611a7c565b61119e565b005b34801561032457600080fd5b5061032d611295565b60405161033a9190611e98565b60405180910390f35b61034b610976565b1561038b576040517f08c379a000000000000000000000000000000000000000000000000000000000815260040161038290611f06565b60405180910390fd5b600660003373ffffffffffffffffffffffffffffffffffffffff1673ffffffffffffffffffffffffffffffffffffffff16815260200190815260200160002060020160009054906101000a900460ff16600660003373ffffffffffffffffffffffffffffffffffffffff1673ffffffffffffffffffffffffffffffffffffffff16815260200190815260200160002060040160009054906101000a900460ff166001151582151514610472576040517f08c379a000000000000000000000000000000000000000000000000000000000815260040161046990611f98565b60405180910390fd5b60001515811515146104b9576040517f08c379a00000000000000000000000000000000000000000000000000000000081526004016104b09061202a565b60405180910390fd5b600660003373ffffffffffffffffffffffffffffffffffffffff1673ffffffffffffffffffffffffffffffffffffffff1681526020019081526020016000206003018390806001815401808255809150506001900390600052602060002001600090919091909150557fe501e06382064c08b637bd906f7e816a8bd244d3f37712d2b85eec3cb01dcf8d338460405161055392919061204a565b60405180910390a1600254600660003373ffffffffffffffffffffffffffffffffffffffff1673ffffffffffffffffffffffffffffffffffffffff168152602001908152602001600020600301805490500361067f576001600660003373ffffffffffffffffffffffffffffffffffffffff1673ffffffffffffffffffffffffffffffffffffffff16815260200190815260200160002060040160006101000a81548160ff0219169083151502179055507f4733c31819d250478892f1958a412cb4b85316e5c7d217c61cef8521f5d1444f33600660003373ffffffffffffffffffffffffffffffffffffffff1673ffffffffffffffffffffffffffffffffffffffff16815260200190815260200160002060030160405161067692919061215a565b60405180910390a15b505050565b600061068e61149f565b73ffffffffffffffffffffffffffffffffffffffff166106ac610f09565b73ffffffffffffffffffffffffffffffffffffffff1614610702576040517f08c379a00000000000000000000000000000000000000000000000000000000081526004016106f9906121d6565b60405180910390fd5b47905090565b610710610976565b15610750576040517f08c379a000000000000000000000000000000000000000000000000000000000815260040161074790611f06565b60405180910390fd5b600660003373ffffffffffffffffffffffffffffffffffffffff1673ffffffffffffffffffffffffffffffffffffffff16815260200190815260200160002060040160009054906101000a900460ff1660011515811515146107e7576040517f08c379a00000000000000000000000000000000000000000000000000000000081526004016107de90612242565b60405180910390fd5b60006107f16114a7565b905080600660003373ffffffffffffffffffffffffffffffffffffffff1673ffffffffffffffffffffffffffffffffffffffff168152602001908152602001600020600501819055507fd0581392fce4efd24c795f3f1dbb4ac72fd673ee9d8f9696abd1de37b407a239338260405161086b92919061204a565b60405180910390a15050565b600030905090565b610887610976565b156108c7576040517f08c379a00000000000000000000000000000000000000000000000000000000081526004016108be90611f06565b60405180910390fd5b34600160008282546108d99190612291565b925050819055506001600660003373ffffffffffffffffffffffffffffffffffffffff1673ffffffffffffffffffffffffffffffffffffffff16815260200190815260200160002060020160006101000a81548160ff0219169083151502179055507f5abe37385c292c3a2956998c90a47f98a0250a7cbc9d8f4477ecb1e6b8ef317a333460405161096c92919061204a565b60405180910390a1565b60008060009054906101000a900460ff16905090565b61099461149f565b73ffffffffffffffffffffffffffffffffffffffff166109b2610f09565b73ffffffffffffffffffffffffffffffffffffffff1614610a08576040517f08c379a00000000000000000000000000000000000000000000000000000000081526004016109ff906121d6565b60405180910390fd5b610a106115d5565b565b610a1a6117dd565b610a2261149f565b73ffffffffffffffffffffffffffffffffffffffff16610a40610f09565b73ffffffffffffffffffffffffffffffffffffffff1614610a96576040517f08c379a0000000000000000000000000000000000000000000000000000000008152600401610a8d906121d6565b60405180910390fd5b600660008373ffffffffffffffffffffffffffffffffffffffff1673ffffffffffffffffffffffffffffffffffffffff1681526020019081526020016000206040518060c00160405290816000820160009054906101000a900473ffffffffffffffffffffffffffffffffffffffff1673ffffffffffffffffffffffffffffffffffffffff1673ffffffffffffffffffffffffffffffffffffffff168152602001600182018054610b4690612316565b80601f0160208091040260200160405190810160405280929190818152602001828054610b7290612316565b8015610bbf5780601f10610b9457610100808354040283529160200191610bbf565b820191906000526020600020905b815481529060010190602001808311610ba257829003601f168201915b505050505081526020016002820160009054906101000a900460ff1615151515815260200160038201805480602002602001604051908101604052809291908181526020018280548015610c3257602002820191906000526020600020905b815481526020019060010190808311610c1e575b505050505081526020016004820160009054906101000a900460ff161515151581526020016005820154815250509050919050565b610c6f61149f565b73ffffffffffffffffffffffffffffffffffffffff16610c8d610f09565b73ffffffffffffffffffffffffffffffffffffffff1614610ce3576040517f08c379a0000000000000000000000000000000000000000000000000000000008152600401610cda906121d6565b60405180910390fd5b610ced6000611677565b565b610cf7610976565b15610d37576040517f08c379a0000000000000000000000000000000000000000000000000000000008152600401610d2e90611f06565b60405180910390fd5b610d3f6117dd565b33816000019073ffffffffffffffffffffffffffffffffffffffff16908173ffffffffffffffffffffffffffffffffffffffff168152505081816020018190525080600660003373ffffffffffffffffffffffffffffffffffffffff1673ffffffffffffffffffffffffffffffffffffffff16815260200190815260200160002060008201518160000160006101000a81548173ffffffffffffffffffffffffffffffffffffffff021916908373ffffffffffffffffffffffffffffffffffffffff1602179055506020820151816001019080519060200190610e2392919061182d565b5060408201518160020160006101000a81548160ff0219169083151502179055506060820151816003019080519060200190610e609291906118b3565b5060808201518160040160006101000a81548160ff02191690831515021790555060a082015181600501559050507f69d91c5f944e6da035f2a126b0d12233cf8492ac6dc65940c8a97525bb25f04f33600660003373ffffffffffffffffffffffffffffffffffffffff1673ffffffffffffffffffffffffffffffffffffffff168152602001908152602001600020604051610efd92919061255e565b60405180910390a15050565b60008060019054906101000a900473ffffffffffffffffffffffffffffffffffffffff16905090565b6000610f3c610976565b905090565b610f496117dd565b600660003373ffffffffffffffffffffffffffffffffffffffff1673ffffffffffffffffffffffffffffffffffffffff1681526020019081526020016000206040518060c00160405290816000820160009054906101000a900473ffffffffffffffffffffffffffffffffffffffff1673ffffffffffffffffffffffffffffffffffffffff1673ffffffffffffffffffffffffffffffffffffffff168152602001600182018054610ff990612316565b80601f016020809104026020016040519081016040528092919081815260200182805461102590612316565b80156110725780601f1061104757610100808354040283529160200191611072565b820191906000526020600020905b81548152906001019060200180831161105557829003601f168201915b505050505081526020016002820160009054906101000a900460ff16151515158152602001600382018054806020026020016040519081016040528092919081815260200182805480156110e557602002820191906000526020600020905b8154815260200190600101908083116110d1575b505050505081526020016004820160009054906101000a900460ff16151515158152602001600582015481525050905090565b61112061149f565b73ffffffffffffffffffffffffffffffffffffffff1661113e610f09565b73ffffffffffffffffffffffffffffffffffffffff1614611194576040517f08c379a000000000000000000000000000000000000000000000000000000000815260040161118b906121d6565b60405180910390fd5b61119c61173c565b565b6111a661149f565b73ffffffffffffffffffffffffffffffffffffffff166111c4610f09565b73ffffffffffffffffffffffffffffffffffffffff161461121a576040517f08c379a0000000000000000000000000000000000000000000000000000000008152600401611211906121d6565b60405180910390fd5b600073ffffffffffffffffffffffffffffffffffffffff168173ffffffffffffffffffffffffffffffffffffffff1603611289576040517f08c379a000000000000000000000000000000000000000000000000000000000815260040161128090612600565b60405180910390fd5b61129281611677565b50565b606061129f610976565b156112df576040517f08c379a00000000000000000000000000000000000000000000000000000000081526004016112d690611f06565b60405180910390fd5b600660003373ffffffffffffffffffffffffffffffffffffffff1673ffffffffffffffffffffffffffffffffffffffff16815260200190815260200160002060020160009054906101000a900460ff16600660003373ffffffffffffffffffffffffffffffffffffffff1673ffffffffffffffffffffffffffffffffffffffff16815260200190815260200160002060040160009054906101000a900460ff1660011515821515146113c6576040517f08c379a00000000000000000000000000000000000000000000000000000000081526004016113bd90611f98565b60405180910390fd5b600015158115151461140d576040517f08c379a00000000000000000000000000000000000000000000000000000000081526004016114049061202a565b60405180910390fd5b6003805461141a90612316565b80601f016020809104026020016040519081016040528092919081815260200182805461144690612316565b80156114935780601f1061146857610100808354040283529160200191611493565b820191906000526020600020905b81548152906001019060200180831161147657829003601f168201915b50505050509250505090565b600033905090565b6000806000600660003373ffffffffffffffffffffffffffffffffffffffff1673ffffffffffffffffffffffffffffffffffffffff16815260200190815260200160002060030180548060200260200160405190810160405280929190818152602001828054801561153857602002820191906000526020600020905b815481526020019060010190808311611524575b5050505050905060005b81518110156115ad576004818154811061155f5761155e612620565b5b906000526020600020015482828151811061157d5761157c612620565b5b60200260200101510361159a576001836115979190612291565b92505b80806115a59061264f565b915050611542565b5060006002546064846115c09190612697565b6115ca9190612720565b905080935050505090565b6115dd610976565b1561161d576040517f08c379a000000000000000000000000000000000000000000000000000000000815260040161161490611f06565b60405180910390fd5b60016000806101000a81548160ff0219169083151502179055507f62e78cea01bee320cd4e420270b5ea74000d11b0c9f74754ebdbfc544b05a25861166061149f565b60405161166d91906119ff565b60405180910390a1565b60008060019054906101000a900473ffffffffffffffffffffffffffffffffffffffff16905081600060016101000a81548173ffffffffffffffffffffffffffffffffffffffff021916908373ffffffffffffffffffffffffffffffffffffffff1602179055508173ffffffffffffffffffffffffffffffffffffffff168173ffffffffffffffffffffffffffffffffffffffff167f8be0079c531659141344cd1fd0a4f28419497f9722a3daafe3b4186f6b6457e060405160405180910390a35050565b611744610976565b611783576040517f08c379a000000000000000000000000000000000000000000000000000000000815260040161177a9061279d565b60405180910390fd5b60008060006101000a81548160ff0219169083151502179055507f5db9ee0a495bf2e6ff9c91a7834c1ba4fdd244a5e8aa4e537bd38aeae4b073aa6117c661149f565b6040516117d391906119ff565b60405180910390a1565b6040518060c00160405280600073ffffffffffffffffffffffffffffffffffffffff1681526020016060815260200160001515815260200160608152602001600015158152602001600081525090565b82805461183990612316565b90600052602060002090601f01602090048101928261185b57600085556118a2565b82601f1061187457805160ff19168380011785556118a2565b828001600101855582156118a2579182015b828111156118a1578251825591602001919060010190611886565b5b5090506118af9190611900565b5090565b8280548282559060005260206000209081019282156118ef579160200282015b828111156118ee5782518255916020019190600101906118d3565b5b5090506118fc9190611900565b5090565b5b80821115611919576000816000905550600101611901565b5090565b6000604051905090565b600080fd5b600080fd5b6000819050919050565b61194481611931565b811461194f57600080fd5b50565b6000813590506119618161193b565b92915050565b60006020828403121561197d5761197c611927565b5b600061198b84828501611952565b91505092915050565b61199d81611931565b82525050565b60006020820190506119b86000830184611994565b92915050565b600073ffffffffffffffffffffffffffffffffffffffff82169050919050565b60006119e9826119be565b9050919050565b6119f9816119de565b82525050565b6000602082019050611a1460008301846119f0565b92915050565b60008115159050919050565b611a2f81611a1a565b82525050565b6000602082019050611a4a6000830184611a26565b92915050565b611a59816119de565b8114611a6457600080fd5b50565b600081359050611a7681611a50565b92915050565b600060208284031215611a9257611a91611927565b5b6000611aa084828501611a67565b91505092915050565b611ab2816119de565b82525050565b600081519050919050565b600082825260208201905092915050565b60005b83811015611af2578082015181840152602081019050611ad7565b83811115611b01576000848401525b50505050565b6000601f19601f8301169050919050565b6000611b2382611ab8565b611b2d8185611ac3565b9350611b3d818560208601611ad4565b611b4681611b07565b840191505092915050565b611b5a81611a1a565b82525050565b600081519050919050565b600082825260208201905092915050565b6000819050602082019050919050565b611b9581611931565b82525050565b6000611ba78383611b8c565b60208301905092915050565b6000602082019050919050565b6000611bcb82611b60565b611bd58185611b6b565b9350611be083611b7c565b8060005b83811015611c11578151611bf88882611b9b565b9750611c0383611bb3565b925050600181019050611be4565b5085935050505092915050565b600060c083016000830151611c366000860182611aa9565b5060208301518482036020860152611c4e8282611b18565b9150506040830151611c636040860182611b51565b5060608301518482036060860152611c7b8282611bc0565b9150506080830151611c906080860182611b51565b5060a0830151611ca360a0860182611b8c565b508091505092915050565b60006020820190508181036000830152611cc88184611c1e565b905092915050565b600080fd5b600080fd5b7f4e487b7100000000000000000000000000000000000000000000000000000000600052604160045260246000fd5b611d1282611b07565b810181811067ffffffffffffffff82111715611d3157611d30611cda565b5b80604052505050565b6000611d4461191d565b9050611d508282611d09565b919050565b600067ffffffffffffffff821115611d7057611d6f611cda565b5b611d7982611b07565b9050602081019050919050565b82818337600083830152505050565b6000611da8611da384611d55565b611d3a565b905082815260208101848484011115611dc457611dc3611cd5565b5b611dcf848285611d86565b509392505050565b600082601f830112611dec57611deb611cd0565b5b8135611dfc848260208601611d95565b91505092915050565b600060208284031215611e1b57611e1a611927565b5b600082013567ffffffffffffffff811115611e3957611e3861192c565b5b611e4584828501611dd7565b91505092915050565b600082825260208201905092915050565b6000611e6a82611ab8565b611e748185611e4e565b9350611e84818560208601611ad4565b611e8d81611b07565b840191505092915050565b60006020820190508181036000830152611eb28184611e5f565b905092915050565b7f5061757361626c653a2070617573656400000000000000000000000000000000600082015250565b6000611ef0601083611e4e565b9150611efb82611eba565b602082019050919050565b60006020820190508181036000830152611f1f81611ee3565b9050919050565b7f506c6561736520636f6d706c65746520746865206578616d206665657320706160008201527f796d656e74000000000000000000000000000000000000000000000000000000602082015250565b6000611f82602583611e4e565b9150611f8d82611f26565b604082019050919050565b60006020820190508181036000830152611fb181611f75565b9050919050565b7f596f752061726520616c726561647920617474656e646564207468652065786160008201527f6d00000000000000000000000000000000000000000000000000000000000000602082015250565b6000612014602183611e4e565b915061201f82611fb8565b604082019050919050565b6000602082019050818103600083015261204381612007565b9050919050565b600060408201905061205f60008301856119f0565b61206c6020830184611994565b9392505050565b600081549050919050565b600082825260208201905092915050565b60008190508160005260206000209050919050565b60008160001c9050919050565b6000819050919050565b60006120ce6120c9836120a4565b6120b1565b9050919050565b60006120e182546120bb565b9050919050565b6000600182019050919050565b600061210082612073565b61210a818561207e565b93506121158361208f565b8060005b8381101561214d5761212a826120d5565b6121348882611b9b565b975061213f836120e8565b925050600181019050612119565b5085935050505092915050565b600060408201905061216f60008301856119f0565b818103602083015261218181846120f5565b90509392505050565b7f4f776e61626c653a2063616c6c6572206973206e6f7420746865206f776e6572600082015250565b60006121c0602083611e4e565b91506121cb8261218a565b602082019050919050565b600060208201905081810360008301526121ef816121b3565b9050919050565b7f506c656173652066696e697368206578616d2066697273740000000000000000600082015250565b600061222c601883611e4e565b9150612237826121f6565b602082019050919050565b6000602082019050818103600083015261225b8161221f565b9050919050565b7f4e487b7100000000000000000000000000000000000000000000000000000000600052601160045260246000fd5b600061229c82611931565b91506122a783611931565b9250827fffffffffffffffffffffffffffffffffffffffffffffffffffffffffffffffff038211156122dc576122db612262565b5b828201905092915050565b7f4e487b7100000000000000000000000000000000000000000000000000000000600052602260045260246000fd5b6000600282049050600182168061232e57607f821691505b602082108103612341576123406122e7565b5b50919050565b600073ffffffffffffffffffffffffffffffffffffffff82169050919050565b600061237a612375836120a4565b612347565b9050919050565b60008190508160005260206000209050919050565b600081546123a381612316565b6123ad8186611ac3565b945060018216600081146123c857600181146123da5761240d565b60ff198316865260208601935061240d565b6123e385612381565b60005b83811015612405578154818901526001820191506020810190506123e6565b808801955050505b50505092915050565b600060ff82169050919050565b6000612436612431836120a4565b612416565b9050919050565b600061244882612073565b6124528185611b6b565b935061245d8361208f565b8060005b8381101561249557612472826120d5565b61247c8882611b9b565b9750612487836120e8565b925050600181019050612461565b5085935050505092915050565b600060c0830160008084015490506124b981612367565b6124c66000870182611aa9565b506001840185830360208701526124dd8382612396565b925050600284015490506124f081612423565b6124fd6040870182611b51565b50600384018583036060870152612514838261243d565b9250506004840154905061252781612423565b6125346080870182611b51565b5060058401549050612545816120bb565b61255260a0870182611b8c565b50819250505092915050565b600060408201905061257360008301856119f0565b818103602083015261258581846124a2565b90509392505050565b7f4f776e61626c653a206e6577206f776e657220697320746865207a65726f206160008201527f6464726573730000000000000000000000000000000000000000000000000000602082015250565b60006125ea602683611e4e565b91506125f58261258e565b604082019050919050565b60006020820190508181036000830152612619816125dd565b9050919050565b7f4e487b7100000000000000000000000000000000000000000000000000000000600052603260045260246000fd5b600061265a82611931565b91507fffffffffffffffffffffffffffffffffffffffffffffffffffffffffffffffff820361268c5761268b612262565b5b600182019050919050565b60006126a282611931565b91506126ad83611931565b9250817fffffffffffffffffffffffffffffffffffffffffffffffffffffffffffffffff04831182151516156126e6576126e5612262565b5b828202905092915050565b7f4e487b7100000000000000000000000000000000000000000000000000000000600052601260045260246000fd5b600061272b82611931565b915061273683611931565b925082612746576127456126f1565b5b828204905092915050565b7f5061757361626c653a206e6f7420706175736564000000000000000000000000600082015250565b6000612787601483611e4e565b915061279282612751565b602082019050919050565b600060208201905081810360008301526127b68161277a565b905091905056fea264697066735822122063369dec185fd59743247aa21934eb11d66b238c41c9e011bb268302a15bcb2164736f6c634300080d0033",
  "immutableReferences": {},
  "source": "// SPDX-License-Identifier: MIT\npragma solidity >=0.4.22 <0.9.0;\n\nimport \"./common/Pausable.sol\";\nimport \"./common/Ownable.sol\";\nimport \"./Student.sol\";\nimport \"./Validation.sol\";\n\ncontract ExamManagement is Pausable, Ownable, Student, Validation{\n    uint256 private balance;\n    uint private num_qus;\n    string private q_hash;\n    uint256[] private ans_key;\n    uint private fee;\n    mapping(address => StudentData) private stdData;\n\n    /**\n     * @dev Sets the values for {num_qus}, {q_hash}, {ans_key} and {fee}.\n     *\n     * The default value of {decimals} is 18. To select a different value for\n     * {decimals} you should overload it.\n     *\n     * All four of these values are immutable: they can only be set once during\n     * construction.\n     */\n\n    constructor(uint _num_qus, string memory _q_hash, uint256[] memory _ans_key, uint _fee){\n        require(_num_qus == _ans_key.length, \"Please check number of questions and answer key count\");\n        num_qus = _num_qus;\n        q_hash = _q_hash;\n        ans_key = _ans_key;\n        fee = _fee;\n    }\n\n    function registerStudent(\n        string memory _email)\n        public virtual override whenNotPaused{\n            StudentData memory std1;\n            std1.wallet = msg.sender;\n            std1.email = _email;\n            stdData[msg.sender] = std1;\n            emit registerStudentEvent(msg.sender, stdData[msg.sender]);\n        }\n\n    function getStudent(address _wallet) \n        public view onlyOwner\n        returns(StudentData memory){\n            return stdData[_wallet];\n    }\n\n    function getProfile() \n        public view virtual override\n        returns(StudentData memory){\n            return stdData[msg.sender];\n        }\n\n    function attendExam() \n        public view virtual override whenNotPaused examEligible(stdData[msg.sender].feePaid, stdData[msg.sender].attempt)\n        returns(string memory){\n            return q_hash;\n    }\n\n    function submitExam(uint _ans)\n        public virtual override whenNotPaused examEligible(stdData[msg.sender].feePaid, stdData[msg.sender].attempt){\n            stdData[msg.sender].ans.push(_ans);\n            emit quesSubmitEvent(msg.sender, _ans);\n            if (stdData[msg.sender].ans.length == num_qus){\n                stdData[msg.sender].attempt = true;\n                emit submitExamEvent(msg.sender, stdData[msg.sender].ans);\n            }            \n    }\n\n    function generateResult()\n        public virtual override whenNotPaused examCompleted(stdData[msg.sender].attempt){\n            uint result  = resultCalculation();\n            stdData[msg.sender].result = result;\n            emit resultEvent(msg.sender, result);\n\n        }\n\n    function resultCalculation() private view returns(uint) {\n        uint count;\n        uint[] memory _ans = stdData[msg.sender].ans;\n        for(uint i = 0; i < _ans.length; i++){\n            if(_ans[i] == ans_key[i]){\n                count+=1;\n            }\n        }\n        uint result = (count * 100)/num_qus;\n        return result;\n    }\n\n\n    function feePayment() public virtual override payable whenNotPaused {\n        //require((fee + 20 * (1 ether)) == msg.value, \"Please pay the correct fee amount\");\n        balance += msg.value;\n        stdData[msg.sender].feePaid = true;\n        emit feePaymentEvent(msg.sender, msg.value);\n    }\n    \n    function getContractAddress() public view returns(address){\n        return address(this);\n    }\n\n    function getBalance() public view onlyOwner returns(uint256){\n        return address(this).balance;\n    }\n\n    function PauseExam() public onlyOwner {\n        _pause();\n    }\n\n    function checkExamPaused() public view returns(bool){\n        return paused();\n    }\n\n    function unPauseExam() public onlyOwner {\n        _unpause();\n    }\n\n\n}",
  "sourcePath": "/home/amal/Documents/Projects/CryptoExam/contracts/ExamManagement.sol",
  "compiler": {
    "name": "solc",
    "version": "0.8.13+commit.abaa5c0e.Emscripten.clang"
  },
  "schemaVersion": "3.4.5",
  "updatedAt": "2022-05-15T12:30:35.280Z",
  "devdoc": {
    "kind": "dev",
    "methods": {
      "constructor": {
        "details": "Sets the values for {num_qus}, {q_hash}, {ans_key} and {fee}. The default value of {decimals} is 18. To select a different value for {decimals} you should overload it. All four of these values are immutable: they can only be set once during construction."
      },
      "owner()": {
        "details": "Returns the address of the current owner."
      },
      "paused()": {
        "details": "Returns true if the contract is paused, and false otherwise."
      },
      "renounceOwnership()": {
        "details": "Leaves the contract without owner. It will not be possible to call `onlyOwner` functions anymore. Can only be called by the current owner. NOTE: Renouncing ownership will leave the contract without an owner, thereby removing any functionality that is only available to the owner."
      },
      "transferOwnership(address)": {
        "details": "Transfers ownership of the contract to a new account (`newOwner`). Can only be called by the current owner."
      }
    },
    "version": 1
  },
  "userdoc": {
    "kind": "user",
    "methods": {},
    "version": 1
  }
}