{
  "contractName": "ExamManagement",
  "abi": [
    {
      "inputs": [
        {
          "internalType": "uint256",
          "name": "_num_qus",
          "type": "uint256"
        },
        {
          "internalType": "string",
          "name": "_q_hash",
          "type": "string"
        },
        {
          "internalType": "uint256[]",
          "name": "_ans_key",
          "type": "uint256[]"
        },
        {
          "internalType": "uint256",
          "name": "_fee",
          "type": "uint256"
        }
      ],
      "stateMutability": "nonpayable",
      "type": "constructor"
    },
    {
      "anonymous": false,
      "inputs": [
        {
          "indexed": true,
          "internalType": "address",
          "name": "previousOwner",
          "type": "address"
        },
        {
          "indexed": true,
          "internalType": "address",
          "name": "newOwner",
          "type": "address"
        }
      ],
      "name": "OwnershipTransferred",
      "type": "event"
    },
    {
      "anonymous": false,
      "inputs": [
        {
          "indexed": false,
          "internalType": "address",
          "name": "account",
          "type": "address"
        }
      ],
      "name": "Paused",
      "type": "event"
    },
    {
      "anonymous": false,
      "inputs": [
        {
          "indexed": false,
          "internalType": "address",
          "name": "account",
          "type": "address"
        }
      ],
      "name": "Unpaused",
      "type": "event"
    },
    {
      "anonymous": false,
      "inputs": [
        {
          "indexed": false,
          "internalType": "address",
          "name": "from",
          "type": "address"
        },
        {
          "indexed": false,
          "internalType": "uint256",
          "name": "amount",
          "type": "uint256"
        }
      ],
      "name": "feePaymentEvent",
      "type": "event"
    },
    {
      "anonymous": false,
      "inputs": [
        {
          "indexed": false,
          "internalType": "string",
          "name": "",
          "type": "string"
        }
      ],
      "name": "pauseExamEvent",
      "type": "event"
    },
    {
      "anonymous": false,
      "inputs": [
        {
          "indexed": false,
          "internalType": "address",
          "name": "wallet",
          "type": "address"
        },
        {
          "indexed": false,
          "internalType": "uint256",
          "name": "ans",
          "type": "uint256"
        }
      ],
      "name": "quesSubmitEvent",
      "type": "event"
    },
    {
      "anonymous": false,
      "inputs": [
        {
          "indexed": false,
          "internalType": "address",
          "name": "_wallet",
          "type": "address"
        },
        {
          "components": [
            {
              "internalType": "address",
              "name": "wallet",
              "type": "address"
            },
            {
              "internalType": "string",
              "name": "email",
              "type": "string"
            },
            {
              "internalType": "bool",
              "name": "feePaid",
              "type": "bool"
            },
            {
              "internalType": "uint256[]",
              "name": "ans",
              "type": "uint256[]"
            },
            {
              "internalType": "bool",
              "name": "attempt",
              "type": "bool"
            },
            {
              "internalType": "uint256",
              "name": "result",
              "type": "uint256"
            }
          ],
          "indexed": false,
          "internalType": "struct Student.StudentData",
          "name": "data",
          "type": "tuple"
        }
      ],
      "name": "registerStudentEvent",
      "type": "event"
    },
    {
      "anonymous": false,
      "inputs": [
        {
          "indexed": false,
          "internalType": "address",
          "name": "wallet",
          "type": "address"
        },
        {
          "indexed": false,
          "internalType": "uint256",
          "name": "result",
          "type": "uint256"
        }
      ],
      "name": "resultEvent",
      "type": "event"
    },
    {
      "anonymous": false,
      "inputs": [
        {
          "indexed": false,
          "internalType": "address",
          "name": "wallet",
          "type": "address"
        },
        {
          "indexed": false,
          "internalType": "uint256[]",
          "name": "ans",
          "type": "uint256[]"
        }
      ],
      "name": "submitExamEvent",
      "type": "event"
    },
    {
      "anonymous": false,
      "inputs": [
        {
          "indexed": false,
          "internalType": "string",
          "name": "",
          "type": "string"
        }
      ],
      "name": "unPauseExamEvent",
      "type": "event"
    },
    {
      "inputs": [],
      "name": "owner",
      "outputs": [
        {
          "internalType": "address",
          "name": "",
          "type": "address"
        }
      ],
      "stateMutability": "view",
      "type": "function"
    },
    {
      "inputs": [],
      "name": "paused",
      "outputs": [
        {
          "internalType": "bool",
          "name": "",
          "type": "bool"
        }
      ],
      "stateMutability": "view",
      "type": "function"
    },
    {
      "inputs": [],
      "name": "renounceOwnership",
      "outputs": [],
      "stateMutability": "nonpayable",
      "type": "function"
    },
    {
      "inputs": [
        {
          "internalType": "address",
          "name": "newOwner",
          "type": "address"
        }
      ],
      "name": "transferOwnership",
      "outputs": [],
      "stateMutability": "nonpayable",
      "type": "function"
    },
    {
      "inputs": [
        {
          "internalType": "string",
          "name": "_email",
          "type": "string"
        }
      ],
      "name": "registerStudent",
      "outputs": [],
      "stateMutability": "nonpayable",
      "type": "function"
    },
    {
      "inputs": [
        {
          "internalType": "address",
          "name": "_wallet",
          "type": "address"
        }
      ],
      "name": "getStudent",
      "outputs": [
        {
          "components": [
            {
              "internalType": "address",
              "name": "wallet",
              "type": "address"
            },
            {
              "internalType": "string",
              "name": "email",
              "type": "string"
            },
            {
              "internalType": "bool",
              "name": "feePaid",
              "type": "bool"
            },
            {
              "internalType": "uint256[]",
              "name": "ans",
              "type": "uint256[]"
            },
            {
              "internalType": "bool",
              "name": "attempt",
              "type": "bool"
            },
            {
              "internalType": "uint256",
              "name": "result",
              "type": "uint256"
            }
          ],
          "internalType": "struct Student.StudentData",
          "name": "",
          "type": "tuple"
        }
      ],
      "stateMutability": "view",
      "type": "function"
    },
    {
      "inputs": [],
      "name": "getProfile",
      "outputs": [
        {
          "components": [
            {
              "internalType": "address",
              "name": "wallet",
              "type": "address"
            },
            {
              "internalType": "string",
              "name": "email",
              "type": "string"
            },
            {
              "internalType": "bool",
              "name": "feePaid",
              "type": "bool"
            },
            {
              "internalType": "uint256[]",
              "name": "ans",
              "type": "uint256[]"
            },
            {
              "internalType": "bool",
              "name": "attempt",
              "type": "bool"
            },
            {
              "internalType": "uint256",
              "name": "result",
              "type": "uint256"
            }
          ],
          "internalType": "struct Student.StudentData",
          "name": "",
          "type": "tuple"
        }
      ],
      "stateMutability": "view",
      "type": "function"
    },
    {
      "inputs": [],
      "name": "attendExam",
      "outputs": [
        {
          "internalType": "string",
          "name": "",
          "type": "string"
        }
      ],
      "stateMutability": "view",
      "type": "function"
    },
    {
      "inputs": [
        {
          "internalType": "uint256",
          "name": "_ans",
          "type": "uint256"
        }
      ],
      "name": "submitExam",
      "outputs": [],
      "stateMutability": "nonpayable",
      "type": "function"
    },
    {
      "inputs": [],
      "name": "generateResult",
      "outputs": [],
      "stateMutability": "nonpayable",
      "type": "function"
    },
    {
      "inputs": [],
      "name": "feePayment",
      "outputs": [],
      "stateMutability": "payable",
      "type": "function"
    },
    {
      "inputs": [],
      "name": "getContractAddress",
      "outputs": [
        {
          "internalType": "address",
          "name": "",
          "type": "address"
        }
      ],
      "stateMutability": "view",
      "type": "function"
    },
    {
      "inputs": [],
      "name": "getBalance",
      "outputs": [
        {
          "internalType": "uint256",
          "name": "",
          "type": "uint256"
        }
      ],
      "stateMutability": "view",
      "type": "function"
    },
    {
      "inputs": [],
      "name": "PauseExam",
      "outputs": [],
      "stateMutability": "nonpayable",
      "type": "function"
    },
    {
      "inputs": [],
      "name": "checkExamPaused",
      "outputs": [
        {
          "internalType": "bool",
          "name": "",
          "type": "bool"
        }
      ],
      "stateMutability": "view",
      "type": "function"
    },
    {
      "inputs": [],
      "name": "unPauseExam",
      "outputs": [],
      "stateMutability": "nonpayable",
      "type": "function"
    }
  ],
  "bytecode": "0x60806040523480156200001157600080fd5b506040516200308538038062003085833981810160405281019062000037919062000583565b60008060006101000a81548160ff02191690831515021790555062000071620000656200010160201b60201c565b6200010960201b60201c565b81518414620000b7576040517f08c379a0000000000000000000000000000000000000000000000000000000008152600401620000ae90620006ba565b60405180910390fd5b836002819055508260039080519060200190620000d6929190620001ce565b508160049080519060200190620000ef9291906200025f565b50806005819055505050505062000740565b600033905090565b60008060019054906101000a900473ffffffffffffffffffffffffffffffffffffffff16905081600060016101000a81548173ffffffffffffffffffffffffffffffffffffffff021916908373ffffffffffffffffffffffffffffffffffffffff1602179055508173ffffffffffffffffffffffffffffffffffffffff168173ffffffffffffffffffffffffffffffffffffffff167f8be0079c531659141344cd1fd0a4f28419497f9722a3daafe3b4186f6b6457e060405160405180910390a35050565b828054620001dc906200070b565b90600052602060002090601f0160209004810192826200020057600085556200024c565b82601f106200021b57805160ff19168380011785556200024c565b828001600101855582156200024c579182015b828111156200024b5782518255916020019190600101906200022e565b5b5090506200025b9190620002b1565b5090565b8280548282559060005260206000209081019282156200029e579160200282015b828111156200029d57825182559160200191906001019062000280565b5b509050620002ad9190620002b1565b5090565b5b80821115620002cc576000816000905550600101620002b2565b5090565b6000604051905090565b600080fd5b600080fd5b6000819050919050565b620002f981620002e4565b81146200030557600080fd5b50565b6000815190506200031981620002ee565b92915050565b600080fd5b600080fd5b6000601f19601f8301169050919050565b7f4e487b7100000000000000000000000000000000000000000000000000000000600052604160045260246000fd5b620003748262000329565b810181811067ffffffffffffffff821117156200039657620003956200033a565b5b80604052505050565b6000620003ab620002d0565b9050620003b9828262000369565b919050565b600067ffffffffffffffff821115620003dc57620003db6200033a565b5b620003e78262000329565b9050602081019050919050565b60005b8381101562000414578082015181840152602081019050620003f7565b8381111562000424576000848401525b50505050565b6000620004416200043b84620003be565b6200039f565b90508281526020810184848401111562000460576200045f62000324565b5b6200046d848285620003f4565b509392505050565b600082601f8301126200048d576200048c6200031f565b5b81516200049f8482602086016200042a565b91505092915050565b600067ffffffffffffffff821115620004c657620004c56200033a565b5b602082029050602081019050919050565b600080fd5b6000620004f3620004ed84620004a8565b6200039f565b90508083825260208201905060208402830185811115620005195762000518620004d7565b5b835b8181101562000546578062000531888262000308565b8452602084019350506020810190506200051b565b5050509392505050565b600082601f8301126200056857620005676200031f565b5b81516200057a848260208601620004dc565b91505092915050565b60008060008060808587031215620005a0576200059f620002da565b5b6000620005b08782880162000308565b945050602085015167ffffffffffffffff811115620005d457620005d3620002df565b5b620005e28782880162000475565b935050604085015167ffffffffffffffff811115620006065762000605620002df565b5b620006148782880162000550565b9250506060620006278782880162000308565b91505092959194509250565b600082825260208201905092915050565b7f506c6561736520636865636b206e756d626572206f66207175657374696f6e7360008201527f20616e6420616e73776572206b657920636f756e740000000000000000000000602082015250565b6000620006a260358362000633565b9150620006af8262000644565b604082019050919050565b60006020820190508181036000830152620006d58162000693565b9050919050565b7f4e487b7100000000000000000000000000000000000000000000000000000000600052602260045260246000fd5b600060028204905060018216806200072457607f821691505b6020821081036200073a5762000739620006dc565b5b50919050565b61293580620007506000396000f3fe6080604052600436106100f35760003560e01c8063715018a61161008a578063d6afc9b111610059578063d6afc9b1146102ad578063d6d48c8d146102d8578063f2fde38b146102ef578063f491f31b14610318576100f3565b8063715018a61461021757806371e174451461022e5780638da5cb5b146102575780639666831e14610282576100f3565b806333c7c026116100c657806333c7c0261461018e5780635c975abb1461019857806368644c65146101c35780636b7b44d7146101da576100f3565b80630c6ca093146100f857806312065fe0146101215780631dbe2e0e1461014c57806332a2c5d014610163575b600080fd5b34801561010457600080fd5b5061011f600480360381019061011a91906119d1565b610343565b005b34801561012d57600080fd5b50610136610684565b6040516101439190611a0d565b60405180910390f35b34801561015857600080fd5b50610161610708565b005b34801561016f57600080fd5b50610178610877565b6040516101859190611a69565b60405180910390f35b61019661087f565b005b3480156101a457600080fd5b506101ad610976565b6040516101ba9190611a9f565b60405180910390f35b3480156101cf57600080fd5b506101d861098c565b005b3480156101e657600080fd5b5061020160048036038101906101fc9190611ae6565b610a47565b60405161020e9190611d18565b60405180910390f35b34801561022357600080fd5b5061022c610c9c565b005b34801561023a57600080fd5b5061025560048036038101906102509190611e6f565b610d24565b005b34801561026357600080fd5b5061026c610f3e565b6040516102799190611a69565b60405180910390f35b34801561028e57600080fd5b50610297610f67565b6040516102a49190611a9f565b60405180910390f35b3480156102b957600080fd5b506102c2610f76565b6040516102cf9190611d18565b60405180910390f35b3480156102e457600080fd5b506102ed61114d565b005b3480156102fb57600080fd5b5061031660048036038101906103119190611ae6565b611208565b005b34801561032457600080fd5b5061032d6112ff565b60405161033a9190611f02565b60405180910390f35b61034b610976565b1561038b576040517f08c379a000000000000000000000000000000000000000000000000000000000815260040161038290611f70565b60405180910390fd5b600660003373ffffffffffffffffffffffffffffffffffffffff1673ffffffffffffffffffffffffffffffffffffffff16815260200190815260200160002060020160009054906101000a900460ff16600660003373ffffffffffffffffffffffffffffffffffffffff1673ffffffffffffffffffffffffffffffffffffffff16815260200190815260200160002060040160009054906101000a900460ff166001151582151514610472576040517f08c379a000000000000000000000000000000000000000000000000000000000815260040161046990612002565b60405180910390fd5b60001515811515146104b9576040517f08c379a00000000000000000000000000000000000000000000000000000000081526004016104b090612094565b60405180910390fd5b600660003373ffffffffffffffffffffffffffffffffffffffff1673ffffffffffffffffffffffffffffffffffffffff1681526020019081526020016000206003018390806001815401808255809150506001900390600052602060002001600090919091909150557fe501e06382064c08b637bd906f7e816a8bd244d3f37712d2b85eec3cb01dcf8d33846040516105539291906120b4565b60405180910390a1600254600660003373ffffffffffffffffffffffffffffffffffffffff1673ffffffffffffffffffffffffffffffffffffffff168152602001908152602001600020600301805490500361067f576001600660003373ffffffffffffffffffffffffffffffffffffffff1673ffffffffffffffffffffffffffffffffffffffff16815260200190815260200160002060040160006101000a81548160ff0219169083151502179055507f4733c31819d250478892f1958a412cb4b85316e5c7d217c61cef8521f5d1444f33600660003373ffffffffffffffffffffffffffffffffffffffff1673ffffffffffffffffffffffffffffffffffffffff1681526020019081526020016000206003016040516106769291906121c4565b60405180910390a15b505050565b600061068e611509565b73ffffffffffffffffffffffffffffffffffffffff166106ac610f3e565b73ffffffffffffffffffffffffffffffffffffffff1614610702576040517f08c379a00000000000000000000000000000000000000000000000000000000081526004016106f990612240565b60405180910390fd5b47905090565b610710610976565b15610750576040517f08c379a000000000000000000000000000000000000000000000000000000000815260040161074790611f70565b60405180910390fd5b600660003373ffffffffffffffffffffffffffffffffffffffff1673ffffffffffffffffffffffffffffffffffffffff16815260200190815260200160002060040160009054906101000a900460ff1660011515811515146107e7576040517f08c379a00000000000000000000000000000000000000000000000000000000081526004016107de906122ac565b60405180910390fd5b60006107f1611511565b905080600660003373ffffffffffffffffffffffffffffffffffffffff1673ffffffffffffffffffffffffffffffffffffffff168152602001908152602001600020600501819055507fd0581392fce4efd24c795f3f1dbb4ac72fd673ee9d8f9696abd1de37b407a239338260405161086b9291906120b4565b60405180910390a15050565b600030905090565b610887610976565b156108c7576040517f08c379a00000000000000000000000000000000000000000000000000000000081526004016108be90611f70565b60405180910390fd5b34600160008282546108d991906122fb565b925050819055506001600660003373ffffffffffffffffffffffffffffffffffffffff1673ffffffffffffffffffffffffffffffffffffffff16815260200190815260200160002060020160006101000a81548160ff0219169083151502179055507f5abe37385c292c3a2956998c90a47f98a0250a7cbc9d8f4477ecb1e6b8ef317a333460405161096c9291906120b4565b60405180910390a1565b60008060009054906101000a900460ff16905090565b610994611509565b73ffffffffffffffffffffffffffffffffffffffff166109b2610f3e565b73ffffffffffffffffffffffffffffffffffffffff1614610a08576040517f08c379a00000000000000000000000000000000000000000000000000000000081526004016109ff90612240565b60405180910390fd5b7f3ae457c3fc2cdb009906632c85a51ff38f24201f6855609c99aff784b1da738f604051610a359061239d565b60405180910390a1610a4561163f565b565b610a4f611847565b610a57611509565b73ffffffffffffffffffffffffffffffffffffffff16610a75610f3e565b73ffffffffffffffffffffffffffffffffffffffff1614610acb576040517f08c379a0000000000000000000000000000000000000000000000000000000008152600401610ac290612240565b60405180910390fd5b600660008373ffffffffffffffffffffffffffffffffffffffff1673ffffffffffffffffffffffffffffffffffffffff1681526020019081526020016000206040518060c00160405290816000820160009054906101000a900473ffffffffffffffffffffffffffffffffffffffff1673ffffffffffffffffffffffffffffffffffffffff1673ffffffffffffffffffffffffffffffffffffffff168152602001600182018054610b7b906123ec565b80601f0160208091040260200160405190810160405280929190818152602001828054610ba7906123ec565b8015610bf45780601f10610bc957610100808354040283529160200191610bf4565b820191906000526020600020905b815481529060010190602001808311610bd757829003601f168201915b505050505081526020016002820160009054906101000a900460ff1615151515815260200160038201805480602002602001604051908101604052809291908181526020018280548015610c6757602002820191906000526020600020905b815481526020019060010190808311610c53575b505050505081526020016004820160009054906101000a900460ff161515151581526020016005820154815250509050919050565b610ca4611509565b73ffffffffffffffffffffffffffffffffffffffff16610cc2610f3e565b73ffffffffffffffffffffffffffffffffffffffff1614610d18576040517f08c379a0000000000000000000000000000000000000000000000000000000008152600401610d0f90612240565b60405180910390fd5b610d2260006116e1565b565b610d2c610976565b15610d6c576040517f08c379a0000000000000000000000000000000000000000000000000000000008152600401610d6390611f70565b60405180910390fd5b610d74611847565b33816000019073ffffffffffffffffffffffffffffffffffffffff16908173ffffffffffffffffffffffffffffffffffffffff168152505081816020018190525080600660003373ffffffffffffffffffffffffffffffffffffffff1673ffffffffffffffffffffffffffffffffffffffff16815260200190815260200160002060008201518160000160006101000a81548173ffffffffffffffffffffffffffffffffffffffff021916908373ffffffffffffffffffffffffffffffffffffffff1602179055506020820151816001019080519060200190610e58929190611897565b5060408201518160020160006101000a81548160ff0219169083151502179055506060820151816003019080519060200190610e9592919061191d565b5060808201518160040160006101000a81548160ff02191690831515021790555060a082015181600501559050507f69d91c5f944e6da035f2a126b0d12233cf8492ac6dc65940c8a97525bb25f04f33600660003373ffffffffffffffffffffffffffffffffffffffff1673ffffffffffffffffffffffffffffffffffffffff168152602001908152602001600020604051610f32929190612634565b60405180910390a15050565b60008060019054906101000a900473ffffffffffffffffffffffffffffffffffffffff16905090565b6000610f71610976565b905090565b610f7e611847565b600660003373ffffffffffffffffffffffffffffffffffffffff1673ffffffffffffffffffffffffffffffffffffffff1681526020019081526020016000206040518060c00160405290816000820160009054906101000a900473ffffffffffffffffffffffffffffffffffffffff1673ffffffffffffffffffffffffffffffffffffffff1673ffffffffffffffffffffffffffffffffffffffff16815260200160018201805461102e906123ec565b80601f016020809104026020016040519081016040528092919081815260200182805461105a906123ec565b80156110a75780601f1061107c576101008083540402835291602001916110a7565b820191906000526020600020905b81548152906001019060200180831161108a57829003601f168201915b505050505081526020016002820160009054906101000a900460ff161515151581526020016003820180548060200260200160405190810160405280929190818152602001828054801561111a57602002820191906000526020600020905b815481526020019060010190808311611106575b505050505081526020016004820160009054906101000a900460ff16151515158152602001600582015481525050905090565b611155611509565b73ffffffffffffffffffffffffffffffffffffffff16611173610f3e565b73ffffffffffffffffffffffffffffffffffffffff16146111c9576040517f08c379a00000000000000000000000000000000000000000000000000000000081526004016111c090612240565b60405180910390fd5b7f0c23a5bf64e0064c2bec16b840d0e891741c429680bb2891bcc8835780f850706040516111f6906126b0565b60405180910390a16112066117a6565b565b611210611509565b73ffffffffffffffffffffffffffffffffffffffff1661122e610f3e565b73ffffffffffffffffffffffffffffffffffffffff1614611284576040517f08c379a000000000000000000000000000000000000000000000000000000000815260040161127b90612240565b60405180910390fd5b600073ffffffffffffffffffffffffffffffffffffffff168173ffffffffffffffffffffffffffffffffffffffff16036112f3576040517f08c379a00000000000000000000000000000000000000000000000000000000081526004016112ea90612742565b60405180910390fd5b6112fc816116e1565b50565b6060611309610976565b15611349576040517f08c379a000000000000000000000000000000000000000000000000000000000815260040161134090611f70565b60405180910390fd5b600660003373ffffffffffffffffffffffffffffffffffffffff1673ffffffffffffffffffffffffffffffffffffffff16815260200190815260200160002060020160009054906101000a900460ff16600660003373ffffffffffffffffffffffffffffffffffffffff1673ffffffffffffffffffffffffffffffffffffffff16815260200190815260200160002060040160009054906101000a900460ff166001151582151514611430576040517f08c379a000000000000000000000000000000000000000000000000000000000815260040161142790612002565b60405180910390fd5b6000151581151514611477576040517f08c379a000000000000000000000000000000000000000000000000000000000815260040161146e90612094565b60405180910390fd5b60038054611484906123ec565b80601f01602080910402602001604051908101604052809291908181526020018280546114b0906123ec565b80156114fd5780601f106114d2576101008083540402835291602001916114fd565b820191906000526020600020905b8154815290600101906020018083116114e057829003601f168201915b50505050509250505090565b600033905090565b6000806000600660003373ffffffffffffffffffffffffffffffffffffffff1673ffffffffffffffffffffffffffffffffffffffff1681526020019081526020016000206003018054806020026020016040519081016040528092919081815260200182805480156115a257602002820191906000526020600020905b81548152602001906001019080831161158e575b5050505050905060005b815181101561161757600481815481106115c9576115c8612762565b5b90600052602060002001548282815181106115e7576115e6612762565b5b6020026020010151036116045760018361160191906122fb565b92505b808061160f90612791565b9150506115ac565b50600060025460648461162a91906127d9565b6116349190612862565b905080935050505090565b611647610976565b15611687576040517f08c379a000000000000000000000000000000000000000000000000000000000815260040161167e90611f70565b60405180910390fd5b60016000806101000a81548160ff0219169083151502179055507f62e78cea01bee320cd4e420270b5ea74000d11b0c9f74754ebdbfc544b05a2586116ca611509565b6040516116d79190611a69565b60405180910390a1565b60008060019054906101000a900473ffffffffffffffffffffffffffffffffffffffff16905081600060016101000a81548173ffffffffffffffffffffffffffffffffffffffff021916908373ffffffffffffffffffffffffffffffffffffffff1602179055508173ffffffffffffffffffffffffffffffffffffffff168173ffffffffffffffffffffffffffffffffffffffff167f8be0079c531659141344cd1fd0a4f28419497f9722a3daafe3b4186f6b6457e060405160405180910390a35050565b6117ae610976565b6117ed576040517f08c379a00000000000000000000000000000000000000000000000000000000081526004016117e4906128df565b60405180910390fd5b60008060006101000a81548160ff0219169083151502179055507f5db9ee0a495bf2e6ff9c91a7834c1ba4fdd244a5e8aa4e537bd38aeae4b073aa611830611509565b60405161183d9190611a69565b60405180910390a1565b6040518060c00160405280600073ffffffffffffffffffffffffffffffffffffffff1681526020016060815260200160001515815260200160608152602001600015158152602001600081525090565b8280546118a3906123ec565b90600052602060002090601f0160209004810192826118c5576000855561190c565b82601f106118de57805160ff191683800117855561190c565b8280016001018555821561190c579182015b8281111561190b5782518255916020019190600101906118f0565b5b509050611919919061196a565b5090565b828054828255906000526020600020908101928215611959579160200282015b8281111561195857825182559160200191906001019061193d565b5b509050611966919061196a565b5090565b5b8082111561198357600081600090555060010161196b565b5090565b6000604051905090565b600080fd5b600080fd5b6000819050919050565b6119ae8161199b565b81146119b957600080fd5b50565b6000813590506119cb816119a5565b92915050565b6000602082840312156119e7576119e6611991565b5b60006119f5848285016119bc565b91505092915050565b611a078161199b565b82525050565b6000602082019050611a2260008301846119fe565b92915050565b600073ffffffffffffffffffffffffffffffffffffffff82169050919050565b6000611a5382611a28565b9050919050565b611a6381611a48565b82525050565b6000602082019050611a7e6000830184611a5a565b92915050565b60008115159050919050565b611a9981611a84565b82525050565b6000602082019050611ab46000830184611a90565b92915050565b611ac381611a48565b8114611ace57600080fd5b50565b600081359050611ae081611aba565b92915050565b600060208284031215611afc57611afb611991565b5b6000611b0a84828501611ad1565b91505092915050565b611b1c81611a48565b82525050565b600081519050919050565b600082825260208201905092915050565b60005b83811015611b5c578082015181840152602081019050611b41565b83811115611b6b576000848401525b50505050565b6000601f19601f8301169050919050565b6000611b8d82611b22565b611b978185611b2d565b9350611ba7818560208601611b3e565b611bb081611b71565b840191505092915050565b611bc481611a84565b82525050565b600081519050919050565b600082825260208201905092915050565b6000819050602082019050919050565b611bff8161199b565b82525050565b6000611c118383611bf6565b60208301905092915050565b6000602082019050919050565b6000611c3582611bca565b611c3f8185611bd5565b9350611c4a83611be6565b8060005b83811015611c7b578151611c628882611c05565b9750611c6d83611c1d565b925050600181019050611c4e565b5085935050505092915050565b600060c083016000830151611ca06000860182611b13565b5060208301518482036020860152611cb88282611b82565b9150506040830151611ccd6040860182611bbb565b5060608301518482036060860152611ce58282611c2a565b9150506080830151611cfa6080860182611bbb565b5060a0830151611d0d60a0860182611bf6565b508091505092915050565b60006020820190508181036000830152611d328184611c88565b905092915050565b600080fd5b600080fd5b7f4e487b7100000000000000000000000000000000000000000000000000000000600052604160045260246000fd5b611d7c82611b71565b810181811067ffffffffffffffff82111715611d9b57611d9a611d44565b5b80604052505050565b6000611dae611987565b9050611dba8282611d73565b919050565b600067ffffffffffffffff821115611dda57611dd9611d44565b5b611de382611b71565b9050602081019050919050565b82818337600083830152505050565b6000611e12611e0d84611dbf565b611da4565b905082815260208101848484011115611e2e57611e2d611d3f565b5b611e39848285611df0565b509392505050565b600082601f830112611e5657611e55611d3a565b5b8135611e66848260208601611dff565b91505092915050565b600060208284031215611e8557611e84611991565b5b600082013567ffffffffffffffff811115611ea357611ea2611996565b5b611eaf84828501611e41565b91505092915050565b600082825260208201905092915050565b6000611ed482611b22565b611ede8185611eb8565b9350611eee818560208601611b3e565b611ef781611b71565b840191505092915050565b60006020820190508181036000830152611f1c8184611ec9565b905092915050565b7f5061757361626c653a2070617573656400000000000000000000000000000000600082015250565b6000611f5a601083611eb8565b9150611f6582611f24565b602082019050919050565b60006020820190508181036000830152611f8981611f4d565b9050919050565b7f506c6561736520636f6d706c65746520746865206578616d206665657320706160008201527f796d656e74000000000000000000000000000000000000000000000000000000602082015250565b6000611fec602583611eb8565b9150611ff782611f90565b604082019050919050565b6000602082019050818103600083015261201b81611fdf565b9050919050565b7f596f752061726520616c726561647920617474656e646564207468652065786160008201527f6d00000000000000000000000000000000000000000000000000000000000000602082015250565b600061207e602183611eb8565b915061208982612022565b604082019050919050565b600060208201905081810360008301526120ad81612071565b9050919050565b60006040820190506120c96000830185611a5a565b6120d660208301846119fe565b9392505050565b600081549050919050565b600082825260208201905092915050565b60008190508160005260206000209050919050565b60008160001c9050919050565b6000819050919050565b60006121386121338361210e565b61211b565b9050919050565b600061214b8254612125565b9050919050565b6000600182019050919050565b600061216a826120dd565b61217481856120e8565b935061217f836120f9565b8060005b838110156121b7576121948261213f565b61219e8882611c05565b97506121a983612152565b925050600181019050612183565b5085935050505092915050565b60006040820190506121d96000830185611a5a565b81810360208301526121eb818461215f565b90509392505050565b7f4f776e61626c653a2063616c6c6572206973206e6f7420746865206f776e6572600082015250565b600061222a602083611eb8565b9150612235826121f4565b602082019050919050565b600060208201905081810360008301526122598161221d565b9050919050565b7f506c656173652066696e697368206578616d2066697273740000000000000000600082015250565b6000612296601883611eb8565b91506122a182612260565b602082019050919050565b600060208201905081810360008301526122c581612289565b9050919050565b7f4e487b7100000000000000000000000000000000000000000000000000000000600052601160045260246000fd5b60006123068261199b565b91506123118361199b565b9250827fffffffffffffffffffffffffffffffffffffffffffffffffffffffffffffffff03821115612346576123456122cc565b5b828201905092915050565b7f4578616d20506175736564000000000000000000000000000000000000000000600082015250565b6000612387600b83611eb8565b915061239282612351565b602082019050919050565b600060208201905081810360008301526123b68161237a565b9050919050565b7f4e487b7100000000000000000000000000000000000000000000000000000000600052602260045260246000fd5b6000600282049050600182168061240457607f821691505b602082108103612417576124166123bd565b5b50919050565b600073ffffffffffffffffffffffffffffffffffffffff82169050919050565b600061245061244b8361210e565b61241d565b9050919050565b60008190508160005260206000209050919050565b60008154612479816123ec565b6124838186611b2d565b9450600182166000811461249e57600181146124b0576124e3565b60ff19831686526020860193506124e3565b6124b985612457565b60005b838110156124db578154818901526001820191506020810190506124bc565b808801955050505b50505092915050565b600060ff82169050919050565b600061250c6125078361210e565b6124ec565b9050919050565b600061251e826120dd565b6125288185611bd5565b9350612533836120f9565b8060005b8381101561256b576125488261213f565b6125528882611c05565b975061255d83612152565b925050600181019050612537565b5085935050505092915050565b600060c08301600080840154905061258f8161243d565b61259c6000870182611b13565b506001840185830360208701526125b3838261246c565b925050600284015490506125c6816124f9565b6125d36040870182611bbb565b506003840185830360608701526125ea8382612513565b925050600484015490506125fd816124f9565b61260a6080870182611bbb565b506005840154905061261b81612125565b61262860a0870182611bf6565b50819250505092915050565b60006040820190506126496000830185611a5a565b818103602083015261265b8184612578565b90509392505050565b7f4578616d20756e70617573656400000000000000000000000000000000000000600082015250565b600061269a600d83611eb8565b91506126a582612664565b602082019050919050565b600060208201905081810360008301526126c98161268d565b9050919050565b7f4f776e61626c653a206e6577206f776e657220697320746865207a65726f206160008201527f6464726573730000000000000000000000000000000000000000000000000000602082015250565b600061272c602683611eb8565b9150612737826126d0565b604082019050919050565b6000602082019050818103600083015261275b8161271f565b9050919050565b7f4e487b7100000000000000000000000000000000000000000000000000000000600052603260045260246000fd5b600061279c8261199b565b91507fffffffffffffffffffffffffffffffffffffffffffffffffffffffffffffffff82036127ce576127cd6122cc565b5b600182019050919050565b60006127e48261199b565b91506127ef8361199b565b9250817fffffffffffffffffffffffffffffffffffffffffffffffffffffffffffffffff0483118215151615612828576128276122cc565b5b828202905092915050565b7f4e487b7100000000000000000000000000000000000000000000000000000000600052601260045260246000fd5b600061286d8261199b565b91506128788361199b565b92508261288857612887612833565b5b828204905092915050565b7f5061757361626c653a206e6f7420706175736564000000000000000000000000600082015250565b60006128c9601483611eb8565b91506128d482612893565b602082019050919050565b600060208201905081810360008301526128f8816128bc565b905091905056fea264697066735822122041cb53352d23d6b6c09622f21912f97cad597a747c9f30c60f1dd22ac65138a964736f6c634300080d0033",
  "immutableReferences": {},
  "source": "// SPDX-License-Identifier: MIT\npragma solidity >=0.4.22 <0.9.0;\n\nimport \"./common/Pausable.sol\";\nimport \"./common/Ownable.sol\";\nimport \"./Student.sol\";\nimport \"./ExamController.sol\";\nimport \"./Validation.sol\";\n\ncontract ExamManagement is Pausable, Ownable, Student, ExamController, Validation{\n    uint256 private balance;\n    uint private num_qus;\n    string private q_hash;\n    uint256[] private ans_key;\n    uint private fee;\n    mapping(address => StudentData) private stdData;\n\n    /**\n     * @dev Sets the values for {num_qus}, {q_hash}, {ans_key} and {fee}.\n     *\n     * The default value of {decimals} is 18. To select a different value for\n     * {decimals} you should overload it.\n     *\n     * All four of these values are immutable: they can only be set once during\n     * construction.\n     */\n\n    constructor(uint _num_qus, string memory _q_hash, uint256[] memory _ans_key, uint _fee){\n        require(_num_qus == _ans_key.length, \"Please check number of questions and answer key count\");\n        num_qus = _num_qus;\n        q_hash = _q_hash;\n        ans_key = _ans_key;\n        fee = _fee;\n    }\n\n    function registerStudent(\n        string memory _email)\n        public virtual override whenNotPaused{\n            StudentData memory std1;\n            std1.wallet = msg.sender;\n            std1.email = _email;\n            stdData[msg.sender] = std1;\n            emit registerStudentEvent(msg.sender, stdData[msg.sender]);\n        }\n\n    function getStudent(address _wallet) \n        public view onlyOwner\n        returns(StudentData memory){\n            return stdData[_wallet];\n    }\n\n    function getProfile() \n        public view virtual override\n        returns(StudentData memory){\n            return stdData[msg.sender];\n        }\n\n    function attendExam() \n        public view virtual override whenNotPaused examEligible(stdData[msg.sender].feePaid, stdData[msg.sender].attempt)\n        returns(string memory){\n            return q_hash;\n    }\n\n    function submitExam(uint _ans)\n        public virtual override whenNotPaused examEligible(stdData[msg.sender].feePaid, stdData[msg.sender].attempt){\n            stdData[msg.sender].ans.push(_ans);\n            emit quesSubmitEvent(msg.sender, _ans);\n            if (stdData[msg.sender].ans.length == num_qus){\n                stdData[msg.sender].attempt = true;\n                emit submitExamEvent(msg.sender, stdData[msg.sender].ans);\n            }            \n    }\n\n    function generateResult()\n        public virtual override whenNotPaused examCompleted(stdData[msg.sender].attempt){\n            uint result  = resultCalculation();\n            stdData[msg.sender].result = result;\n            emit resultEvent(msg.sender, result);\n\n        }\n\n    function resultCalculation() private view returns(uint) {\n        uint count;\n        uint[] memory _ans = stdData[msg.sender].ans;\n        for(uint i = 0; i < _ans.length; i++){\n            if(_ans[i] == ans_key[i]){\n                count+=1;\n            }\n        }\n        uint result = (count * 100)/num_qus;\n        return result;\n    }\n\n\n    function feePayment() public virtual override payable whenNotPaused {\n        //require((fee + 20 * (1 ether)) == msg.value, \"Please pay the correct fee amount\");\n        balance += msg.value;\n        stdData[msg.sender].feePaid = true;\n        emit feePaymentEvent(msg.sender, msg.value);\n    }\n    \n    function getContractAddress() public view returns(address){\n        return address(this);\n    }\n\n    function getBalance() \n        public view virtual override onlyOwner returns(uint256){\n            return address(this).balance;\n    }\n\n    function PauseExam() public virtual override onlyOwner {\n        emit pauseExamEvent(\"Exam Paused\");\n        _pause();\n    }\n\n    function checkExamPaused() public view virtual override returns(bool){\n        return paused();\n    }\n\n    function unPauseExam() public virtual override onlyOwner {\n        emit unPauseExamEvent(\"Exam unpaused\");\n        _unpause();\n    }\n\n\n}",
  "sourcePath": "/home/amal/Documents/Projects/CryptoExam/contracts/ExamManagement.sol",
  "compiler": {
    "name": "solc",
    "version": "0.8.13+commit.abaa5c0e.Emscripten.clang"
  },
  "schemaVersion": "3.4.5",
  "updatedAt": "2022-05-17T09:56:21.207Z",
  "devdoc": {
    "kind": "dev",
    "methods": {
      "constructor": {
        "details": "Sets the values for {num_qus}, {q_hash}, {ans_key} and {fee}. The default value of {decimals} is 18. To select a different value for {decimals} you should overload it. All four of these values are immutable: they can only be set once during construction."
      },
      "owner()": {
        "details": "Returns the address of the current owner."
      },
      "paused()": {
        "details": "Returns true if the contract is paused, and false otherwise."
      },
      "renounceOwnership()": {
        "details": "Leaves the contract without owner. It will not be possible to call `onlyOwner` functions anymore. Can only be called by the current owner. NOTE: Renouncing ownership will leave the contract without an owner, thereby removing any functionality that is only available to the owner."
      },
      "transferOwnership(address)": {
        "details": "Transfers ownership of the contract to a new account (`newOwner`). Can only be called by the current owner."
      }
    },
    "version": 1
  },
  "userdoc": {
    "kind": "user",
    "methods": {},
    "version": 1
  }
}